:020000040800F2
:1000000000040020DF0D0008ED0D0008EF0D0008D2
:10001000F10D0008F30D0008F50D000800000000C8
:10002000000000000000000000000000F70D0008C4
:10003000F90D000800000000FB0D0008FD0D000890
:10004000410E0008430E0008450E0008470E000848
:10005000490E00084B0E00084D0E00084F0E000818
:10006000510E0008530E0008550E0008570E0008E8
:10007000590E00085B0E00085D0E00085F0E0008B8
:10008000610E0008630E0008650E0008FF0D0008F1
:10009000FF0D0008FF0D0008FF0D00086F0E00089F
:1000A000710E0008730E0008750E0008770E000828
:1000B000790E00087B0E00087D0E00087F0E0008F8
:1000C000810E0008830E0008850E0008870E0008C8
:1000D000890E00088B0E00088D0E00088F0E000898
:1000E000910E0008930E0008950E0008970E000868
:1000F000990E00089B0E00089D0E00089F0E000838
:10010000A10E0008A30E0008A50E0008A70E000807
:10011000A90E0008AB0E0008AD0E0008AF0E0008D7
:10012000B10E0008B30E0008B50E0008B70E0008A7
:1001300000F002F800F03AF80AA090E8000C8244BF
:100140008344AAF10107DA4501D100F02FF8AFF29C
:10015000090EBAE80F0013F0010F18BFFB1A43F0A5
:1001600001031847C0AF0000E0AF0000103A24BF01
:1001700078C878C1FAD8520724BF30C830C144BF0C
:1001800004680C607047000000230024002500264E
:10019000103A28BF78C1FBD8520728BF30C148BFEA
:1001A0000B6070471FB51FBD10B510BD01F02BFBD4
:1001B0001146FFF7F7FF00F007FF01F049FB03B41A
:1001C000FFF7F2FF03BC01F04DFB000010B5044641
:1001D000C248844208D10121042000F017FB00210D
:1001E000042000F013FB46E0BD48844208D1012101
:1001F000082000F00BFB0021082000F007FB3AE08C
:10020000B848844208D10121102000F0FFFA0021F3
:10021000102000F0FBFA2EE0B348844208D10121FF
:10022000202000F0F3FA0021202000F0EFFA22E075
:10023000AE48844208D10121402000F0E7FA0021B5
:10024000402000F0E3FA16E0A948844208D10121D9
:10025000802000F0DBFA0021802000F0D7FA0AE0CD
:10026000A448844207D10121801500F0CFFA002173
:10027000A01500F0CBFA10BD10B50121084600F022
:10028000C5FA0021012000F0C1FA10BD2DE9F041AE
:10029000024600250026002000230024002791F8B4
:1002A00003C00CF00F0591F803C01CF0100F03D031
:1002B00091F802C04CEA050591F800C0BCF1000FAE
:1002C00031D0146800202BE04FF0010C0CFA00F341
:1002D000B1F800C00CEA03069E4220D183004FF023
:1002E0000F0C0CFA03F7BC4305FA03FC4CEA0404B8
:1002F00091F803C0BCF1280F06D14FF0010C0CFAA5
:1003000000FCC2F814C00AE091F803C0BCF1480F29
:1003100005D14FF0010C0CFA00FCC2F810C0401CD3
:100320000828D1D31460B1F800C0BCF1FF0F34DD50
:10033000546800202EE000F1080C4FF0010808FA84
:100340000CF3B1F800C00CEA03069E4221D18300F1
:100350004FF00F0C0CFA03F7BC4305FA03FC4CEA10
:10036000040491F803C0BCF1280F05D100F1080C7A
:1003700008FA0CF8C2F8148091F803C0BCF1480FD9
:1003800007D100F1080C4FF0010808FA0CF8C2F888
:100390001080401C0828CED35460BDE8F0814FF691
:1003A000FF710180022181700421C17070470246F3
:1003B000002093680B4201D0012000E0002070472C
:1003C0000146886880B2704702460020D3680B421D
:1003D00001D0012000E0002070470146C86880B2CB
:1003E000704701617047416170470AB1016100E0E7
:1003F00041617047C16070474FF480320A438261A7
:1004000081618261826982697047024600203A4BAD
:1004100018684FF68073184040EA02100843364BC4
:10042000186070473549C8617047F0B50A46002327
:10043000002400210025304E7168C0F3034583B2CB
:1004400000F44016B6F5401F08D121F070612A4E25
:10045000766826F07066284F7E6012E000F4801601
:10046000B6F5801F06D1032606FA05F4A14341F034
:10047000706106E0460D360103FA06F6B14341F01D
:10048000706122B1460D360103FA06F631431A4E69
:100490007160F0BD30B500228B071C0F0F2303FAEB
:1004A00004F2154B08338C1053F824309343124C4C
:1004B00008348D1044F8253023468C1053F824302E
:1004C0008C07240F00FA04F423430B4C08348D10DE
:1004D00044F8253030BD0A490860704700080140E3
:1004E000000C0140001001400014014000180140C0
:1004F000001C01400020014000000140000020429B
:10050000DC002042DD48006840F00100DB49086063
:1005100008464068DA490840D849486008460068FB
:10052000D8490840D54908600846006820F4802072
:1005300008600846406820F4FE0048604FF41F0041
:1005400088607047CD49096821F48031CB4A116039
:100550001146096821F480211160B0F5803F03D075
:10056000B0F5802F0ED106E0C449096841F480310E
:10057000C24A116007E0C149096841F4A021BF4A9D
:10058000116000E000BF00BF704710B501460022B7
:10059000002300204A11012A02D1B84C236806E04A
:1005A000022A02D1B54C236A01E0B44C636A01F01F
:1005B0001F02012494401C4201D0012000E00020D1
:1005C00010BD38B5002000900024002500BF312068
:1005D000FFF7DBFF05460098401C00900098B0F53F
:1005E000A06F01D0002DF2D03120FFF7CEFF08B16F
:1005F000012400E00024204638BD014600209F4A27
:10060000106820F0F80040EAC100106070479E4971
:100610000860704702460020984B586820F47C1010
:1006200042EA01031843954B5860704796490866A3
:10063000704701460020914A506820F003000843AB
:10064000506070478D48406800F00C0070470146CC
:1006500000208A4A506820F0F0000843506070473C
:1006600001460020854A506820F4E060084350604D
:10067000704701460020814A506820F4605040EAEB
:10068000C1005060704729B17C4A527A02437B4BCB
:100690005A7204E0794A527A8243784B5A72704710
:1006A0007A490860704701460020744A506820F477
:1006B00040400843506070470021754A11706F4AEE
:1006C00082F82010012802D0042808D103E001217B
:1006D0006F4A117004E005216D4A117000E000BFFF
:1006E00000BF70476B49086070476449096A01435D
:1006F000624A11627047674944390860704730B5F3
:1007000000210022002400235C4D6D6805F00C01DF
:1007100021B1042905D0082923D105E05E4D0560EB
:1007200022E05D4D05601FE0544D6D6805F47012C8
:10073000524D6D6805F48034022505EB92421CB9D8
:10074000564D554305600BE04C4D6D6815F4003F68
:1007500003D0524D5543056002E04F4D55430560AF
:1007600002E04D4D056000BF00BF444D6D6805F0CF
:10077000F00109094A4D6B5C0568DD4045603F4D5D
:100780006D6805F4E061090A454D6B5C4568DD4024
:1007900085603A4D6D6805F46051C90A404D6B5C47
:1007A0004568DD40C560354D6D6805F44041890BF5
:1007B0003C4D6B5CC568B5FBF3F5056130BD29B1F7
:1007C0002E4A526902432D4B5A6104E02B4A52696A
:1007D00082432A4B5A61704729B1284A92690243E1
:1007E000264B9A6104E0254A92698243234B9A6121
:1007F000704729B1214AD2690243204BDA6104E0F3
:100800001E4AD26982431D4BDA61704729B11B4AE7
:10081000D2680243194BDA6004E0184AD268824376
:10082000164BDA60704729B1144A12690243134B20
:100830001A6104E0114A12698243104B1A61704731
:1008400014494039086070470F49C86470470B4924
:10085000C87170470948406A40F080700749486293
:10086000704701460020054A92680A4201D00120E3
:1008700000E0002070470149887270470010024074
:100880000000FFF8FFFFF6FE00004242D80042429F
:10089000201002408004424200127A0000093D000C
:1008A000000000201000002001460020FD4A1068D2
:1008B00000F03800084310607047FA49096821F0D9
:1008C0000801F84A11601146096801431160704738
:1008D000F449096821F01001F24A116011460968D3
:1008E000014311607047F048EE494860EF484860A6
:1008F0007047EC48006940F08000EA4908617047A1
:100900000420E849C96811F0010F01D001200EE070
:10091000E449C96811F0040F01D0022007E0E14961
:10092000C96811F0100F01D0032000E004207047C7
:1009300008B500200090FF20009002E00098401EC3
:10094000009000980028F9D108BD70B50446042530
:10095000FFF7D6FF054605E0FFF7EAFFFFF7D0FFF8
:100960000546641E012D01D1002CF5D104B90525E1
:10097000284670BD70B50546042440F6FF70FFF7A9
:10098000E4FF0446042C19D1C648006940F0020077
:10099000C449086108464561006940F040000861AB
:1009A00040F6FF70FFF7D1FF0446052C06D0BD4886
:1009B000006941F6FD710840BA490861204670BDE2
:1009C00010B5042440F6FF70FFF7BFFF0446042C67
:1009D00018D1B448006940F00400B24908610846E3
:1009E000006940F04000086140F6FF70FFF7ADFF7E
:1009F0000446052C06D0AB48006941F6FB7108405F
:100A0000A8490861204610BD10B5042440F6FF70C7
:100A1000FFF79BFF0446042C3BD1A348A149886003
:100A2000A24888600846006940F020000861084636
:100A3000006940F04000086140F6FF70FFF785FF55
:100A40000446042C1CD19748006941F6DF71084028
:100A5000944908610846006940F010000861A5202B
:100A6000934908800F20FFF770FF0446052C10D033
:100A70008C48006941F6EF7108408A49086108E036
:100A8000052C06D08748006941F6EF71084085497A
:100A90000861204610BDF8B506460D460424002026
:100AA00000900F20FFF751FF0446042C28D17D4809
:100AB000006940F001007B49086135800F20FFF795
:100AC00044FF0446042C12D1B01C0090280C00995D
:100AD00008800F20FFF739FF0446052C10D071481D
:100AE000006941F6FE7108406E49086108E0052C76
:100AF00006D06C48006941F6FE71084069490861FA
:100B00002046F8BD70B505460E4604240F20FFF7B9
:100B10001CFF0446042C13D16248006940F0010018
:100B2000604908612E800F20FFF70FFF0446052C57
:100B300006D05C48006941F6FE71084059490861D9
:100B4000204670BD70B505460E4604240F20FFF701
:100B5000FCFE0446042C17D1534852498860534880
:100B600088600846006940F0100008612E800F2060
:100B7000FFF7EBFE0446052C06D04A48006941F613
:100B8000EF71084047490861204670BD2DE9F047E4
:100B900004464FF6FF763746B046B1460425E44397
:100BA000E6B2C4F30727C4F307484FEA14690F20DD
:100BB000FFF7CBFE0546042D40D13B4839498860FC
:100BC0003A4888600846006940F010000861FF2E2E
:100BD00006D03748083006800F20FFF7B6FE0546DE
:100BE000042D08D1FF2F06D031480A3007800F208E
:100BF000FFF7ABFE0546042D0AD1B8F1FF0F07D071
:100C00002B480C30A0F800800F20FFF79EFE054611
:100C1000042D0AD1B9F1FF0F07D025480E30A0F8F6
:100C200000900F20FFF791FE0546052D06D01D48C8
:100C3000006941F6EF7108401A4908612846BDE88D
:100C4000F08770B50546042440F6FF70FFF77DFE7F
:100C50000446042C49D1144812498860134888601E
:100C60000846006940F0200008610846006940F02D
:100C70004000086140F6FF70FFF767FE0446042C51
:100C80002AD10848006941F6DF710840054908612A
:100C90000846006940F0100008615DB10020044979
:100CA00008800AE00020024023016745AB89EFCDB0
:100CB00000F8FF1FA5204549088040F6FF70FFF7A8
:100CC00044FE0446052C10D04148006941F6EF71FE
:100CD00008403F49086108E0052C06D03C480069FF
:100CE00041F6DF7108403A490861204670BD2DE9A0
:100CF000F04105460E4617460424364834498860BC
:100D0000354888600F20FFF720FE0446042C19D1D7
:100D10002F48006940F010002D49086147F0F800A5
:100D2000304328432949891C08800F20FFF70DFE16
:100D30000446052C06D02648006941F6EF710840AC
:100D4000234908612046BDE8F0812148C069800838
:100D500070471F48006A704700201D49C96911F09B
:100D6000020F01D0012000E0002070470020184948
:100D7000096811F0200F01D0012000E00020704729
:100D800029B1134A12690243114B1A6104E0104A57
:100D9000126982430E4B1A617047014600200129F7
:100DA00008D10B4AD26912F0010F01D0012008E0EE
:100DB000002006E0064AD2680A4201D0012000E085
:100DC000002070470249C8607047000000F8FF1F0C
:100DD0000020024023016745AB89EFCD70470B48E7
:100DE00080470B4981F308880A480047FEE7FEE781
:100DF000FEE7FEE7FEE7FEE7FEE7FEE7FEE7FEE7CB
:100E000005480649064A074B70470000DD0D0008FB
:100E100078060020310100087800002078060020C4
:100E200078020020780200207047704700BFFEE77C
:100E300000BFFEE700BFFEE770477047704770478E
:100E400070477047704770477047704770477047EA
:100E500070477047704770477047704770477047DA
:100E600070477047704770477047704770477047CA
:100E700070477047704770477047704770477047BA
:100E800070477047704770477047704770477047AA
:100E9000704770477047704770477047704770479A
:100EA000704770477047704770477047704770478A
:100EB000704770477047704708B501216020FFF701
:100EC0008BFC4FF4E060ADF8000010208DF80300BB
:100ED00002208DF8020069467D48FFF7D7F94FF4EC
:100EE0004040ADF8000010208DF8030002208DF87E
:100EF000020069467748FFF7C9F94FF40050ADF892
:100F0000000004208DF8030002208DF802006946DD
:100F10007048FFF7BBF94FF48050ADF80000102087
:100F20008DF8030002208DF8020069466948FFF73A
:100F3000ADF908BD10B5FFF7E5FA4FF48030FFF7C3
:100F400001FBFFF73EFB6449087008460078012862
:100F500005D14FF4E0110004FFF75CFB0DE0012028
:100F6000FFF755FB00BF2120FFF70FFB0028FAD049
:100F70004FF460110020FFF74DFB1020FFF7A8FC95
:100F80000220FFF791FC0020FFF761FB0020FFF734
:100F900070FB4FF48060FFF763FB0120FFF746FB17
:100FA00000BF3920FFF7F1FA0028FAD00220FFF73E
:100FB00040FB00BFFFF746FB0828FBD1012144F2AC
:100FC0000500FFF709FC10BD1CB5FFF7B3FFFFF7E5
:100FD00073FF012000F01FF94049414800F0AFF9CC
:100FE0004FF4FA6000F08EF8012000F014F93D494A
:100FF0003D4800F0A4F94FF4FA6000F083F80120B6
:1010000000F009F939493A4800F0CCF940F2DC50D7
:1010100000F078F8012000F0FEF83648A0F1F00169
:1010200000F5B473A0F5B472CDE900103821232087
:1010300000F053FA00F0E7F940F2DC5000F062F8FB
:1010400000F0D7F82C48A0F5F071A0F17803A0F5D6
:101050003472CDE900103821232000F03EFA00F070
:10106000D2F940F2DC5000F04DF800F0C2F821480F
:10107000F030A0F5167100F5F073A0F5F072CDE92F
:1010800000103821232000F028FA00F0BCF940F2CB
:10109000DC5000F037F8022000F0BDF8174918487E
:1010A00000F04DF94FF4FA6000F02CF8022000F047
:1010B000B2F800F0F6F94FF47A7000F023F802204D
:1010C00000F0A9F800F0EDF900201CBD7047000009
:1010D000001401400018014014000020A22F000855
:1010E000221D0008A254000822420008A27900082C
:1010F00022670008DA190008321C0008A29E0008C6
:10110000228C00080022002100BF06E0002200E03F
:10111000521CB2F5205FFBD3491C8142F6D37047C5
:1011200070B5044625464FF40071FE48FFF75BF9A1
:1011300000261BE015F0800F05D04FF48061F948C0
:10114000FFF74FF904E04FF48061F648FFF74BF9E1
:101150004FF40071F348FFF744F94FF40071F14880
:10116000FFF741F96806050E701CC6B2082EE1DBD8
:1011700070BD10B506E04FF40051EB48FFF717F9CA
:1011800000B900E0F7E700BF10BD10B504464FF40A
:101190008071E448FFF725F94FF48071E148FFF7CB
:1011A00022F94FF40041E048FFF71DF92046FFF710
:1011B000B7FF4FF48071DB48FFF713F910BD10B58E
:1011C00004464FF48071D748FFF70BF94FF4807154
:1011D000D448FFF708F94FF40041D348FFF701F96D
:1011E0002046FFF79DFF4FF48071CE48FFF7F9F8D6
:1011F00010BD10B54FF48041CB48FFF7F4F86420E0
:10120000FFF780FF4FF48041C748FFF7EAF86420FA
:10121000FFF778FF10BD2DE9F05F044600274FF07F
:101220000F0B012C06D18246272501264FF000081E
:101230004FF00009022C07D14FF0030A00250026C9
:101240004FF027084FF00109FFF7D3FFFFF791FF99
:101250001220FFF79AFFFFF78CFF0120FFF795FFA1
:101260002720FFF7ACFF0120FFF7A9FF0020FFF7C1
:10127000A6FF1120FFF789FF0AF0FF00FFF79FFF8D
:101280003C20FFF782FF0520FFF799FF2120FFF7A1
:101290007CFF0020FFF793FF8020FFF790FF4420A2
:1012A000FFF773FFF8B2FFF78AFF0BF0FF00FFF7BD
:1012B00086FF4520FFF769FFE8B2FFF780FFF0B235
:1012C000FFF77DFF08F0FF00FFF779FF09F0FF004F
:1012D000FFF775FF1820FFF758FF8020FFF76FFF1B
:1012E0004E20FFF752FFF8B2FFF769FF4F20FFF7DC
:1012F0004CFFE8B2FFF763FFF0B2FFF760FFFFF7C4
:1013000038FFBDE8F09F10B51A20FFF73EFF192007
:10131000FFF755FF2220FFF738FFD720FFF74FFFD9
:101320002020FFF732FFFFF724FF1020FFF72DFFEB
:101330000120FFF744FF6420FFF7E4FE10BD70B505
:1013400005460E462420FFF720FF002404E02878FD
:10135000FFF735FF6D1C641CB4F5945FF7DB2620A6
:10136000FFF713FF002404E03078FFF728FF761C16
:10137000641CB4F5945FF7DBFFF7C5FF70BD10B5D3
:101380001A20FFF702FF1920FFF719FF2220FFF7AD
:10139000FCFED720FFF713FF2020FFF7F6FEFFF734
:1013A000E8FE10BD2DE9F04104460E4627462420F4
:1013B000FFF7EBFE002504E02078FFF700FF641C38
:1013C0006D1CB5F5945FF7DB2620FFF7DEFE0025E8
:1013D00004E03078FFF7F3FE761C6D1CB5F5945FE2
:1013E000F7DBFFF7CCFF3C462620FFF7CEFE0025BB
:1013F00004E02078FFF7E3FE641C6D1CB5F5945FF4
:10140000F7DBBDE8F08110B52220FFF7BEFEFF201C
:10141000FFF7D5FE2020FFF7B8FEFFF7AAFE102049
:10142000FFF7B3FE0120FFF7CAFE0A20FFF76AFEAE
:1014300010BD10B52420FFF7A8FE002403E0FF2014
:10144000FFF7BDFE641CB4F5945FF8DB2620FFF7C0
:101450009CFE002403E0FF20FFF7B1FE641CB4F5FE
:10146000945FF8DBFFF74FFF10BD10B52420FFF7A6
:101470008CFE002403E00020FFF7A1FE641CB4F5FD
:10148000945FF8DB2620FFF780FE002403E00020B5
:10149000FFF795FE641CB4F5945FF8DBFFF733FFAC
:1014A00010BD10B52420FFF770FE002403E0FF20DC
:1014B000FFF785FE641CB4F5945FF8DB2620FFF788
:1014C00064FE002403E00020FFF779FE641CB4F5FD
:1014D000945FF8DBFFF717FF10BD2DE9FF4F93B0C6
:1014E0001498C11700EB5171CC10201D129040F2DE
:1014F000271113980E1A3046F11706EB11610912E5
:101500001191F11706EB11610912A6EB012110915F
:10151000A6F117073846F91707EB116109120F9169
:10152000F91703E0001401400018014007EB1161B6
:101530000912A7EB01210E91A7F1010840464FEADD
:10154000E87108EB116109120D914FEAE87108EB9F
:1015500011610912A8EB01210C91A8F11709484665
:101560004FEAE97109EB116109120B914FEAE97138
:1015700009EB11610912A9EB01210A91A9F10D0AE8
:1015800050464FEAEA710AEB1161091209914FEADC
:10159000EA710AEB11610912AAEB01210891AAF183
:1015A000170B58464FEAEB710BEB116109120B91C7
:1015B0004FEAEB710BEB11610912ABEB01210A91C0
:1015C000401E05900598C11700EB116109120491A6
:1015D0000598C11700EB11610912A0EB01210391DD
:1015E0000598173802900298C11700EB1161091293
:1015F00001910298C11700EB11610912A0EB0121C2
:1016000000914420FFF7C1FDE0B2FFF7D8FD129929
:10161000C8B2FFF7D4FD4520FFF7B7FD1099C8B257
:10162000FFF7CDFD1199C8B2FFF7C9FD0E99C8B2F9
:10163000FFF7C5FD0F99C8B2FFF7C1FD4E20FFF7B8
:10164000A4FDE0B2FFF7BBFD4F20FFF79EFD109910
:10165000C8B2FFF7B4FD1199C8B2FFF7B0FDFFF7AC
:1016600088FD2420FFF791FD002507E015990878F3
:10167000FFF7A5FD1598401C15906D1C782DF5DB26
:101680004420FFF782FDE0B2FFF799FD1299C8B23E
:10169000FFF795FD4520FFF778FD0C99C8B2FFF7DD
:1016A0008EFD0D99C8B2FFF78AFD0A99C8B2FFF7FF
:1016B00086FD0B99C8B2FFF782FD4E20FFF765FD4E
:1016C000E0B2FFF77CFD4F20FFF75FFD0C99C8B239
:1016D000FFF775FD0D99C8B2FFF771FDFFF749FDE2
:1016E0002420FFF752FD002507E016990878FFF740
:1016F00066FD1698401C16906D1C782DF5DB442075
:10170000FFF743FDE0B2FFF75AFD1299C8B2FFF7A9
:1017100056FD4520FFF739FD0899C8B2FFF74FFD88
:101720000999C8B2FFF74BFD0699C8B2FFF747FD0C
:101730000799C8B2FFF743FD4E20FFF726FDE0B240
:10174000FFF73DFD4F20FFF720FD0899C8B2FFF7D6
:1017500036FD0999C8B2FFF732FDFFF70AFD2420D4
:10176000FFF713FD002507E020990878FFF727FD14
:101770002098401C20906D1C782DF5DB4420FFF74D
:1017800004FDE0B2FFF71BFD1299C8B2FFF717FD89
:101790004520FFF7FAFC0399C8B2FFF710FD049942
:1017A000C8B2FFF70CFD0099C8B2FFF708FD019918
:1017B000C8B2FFF704FD4E20FFF7E7FCE0B2FFF7E9
:1017C000FEFC4F20FFF7E1FC0399C8B2FFF7F7FCDE
:1017D0000499C8B2FFF7F3FCFFF7CBFC2420FFF716
:1017E000D4FC002507E021990878FFF7E8FC219850
:1017F000401C21906D1C782DF5DB17B0BDE8F08FF3
:10180000704770477047754600F028F8AE460500EF
:101810006946534620F00700854618B020B5FFF70B
:10182000EFFABDE820404FF000064FF000074FF000
:1018300000084FF0000B21F00701AC46ACE8C009EE
:10184000ACE8C009ACE8C009ACE8C0098D467047F7
:101850000446AFF300802046FEF7B1FC0048704715
:101860001800002001491820ABBEFEE72600020048
:101870007047FFFE0FFFFFFFF000FFFFFFC0003FBC
:10188000FFFF00001FFFFE00000FFFFE003E07FFEE
:10189000FC00FF83FFF801FFE3FFF803FFE1FFF81F
:1018A00007FFF1FFF007FFF1FFF007FFF9FFF00777
:1018B000FFF9FFF007FFF1FFF807FFF1FFF807FF5F
:1018C000F1FFF803FFE3FFFC01FFC3FFFC00FF870C
:1018D000FFFE003C07FFFF00000FFFFF80003FFFFF
:1018E000FFE0007FFFFFFC03FFFFFFFFFFFFFFFFA5
:1018F000FFFFFFFFFFFFFFFFFFFFFFFFFFFFFFFFF8
:10190000FFFFFFFFFFFFFFFFFF1FFFFFFFFC1FFFAA
:10191000FFFFF80FFFFFFFF8000001FFF0000001DC
:10192000FFF0000001FFE0000001FFE0000001FF08
:10193000E0000001FFE0000001FFE3FFFF87FFEF91
:10194000FFFFFFFFFFFFFFFFFFFFFFFFFFFFFFFFA7
:10195000FFFFFFFFFFFFFFFFFFFFFFFFFFFFFFFF97
:10196000FFFFFFFFFFFFFFFFFFFFFFFFFF1FFFF86E
:10197000FFFC03FFF1FFF003FFE3FFE001FF83FF44
:10198000E001FF03FFC01BFE01FFC03FFC01FFC0E1
:101990003FF801FFC03FF001FFC03FE201FFC03F41
:1019A0008E01FFC01F1E01FFC0003E01FFC0003EB0
:1019B00001FFE0007E03FFE000FC03FFF001FC03F9
:1019C000FFF807F807FFFE0FFCFFFFFFFFFFFFFF19
:1019D000FFFFFFFFFFFFFFFFFFFFFFFFFFFFFFFF17
:1019E000FFFFFE7FFFFFFFFE3FF0FFFFFE3FC07FD8
:1019F000CFFE3FC07F9FFE3FC07F1FFE3FC07E1FC8
:101A0000FE3FC07C3FFE3FC0783FFE3FC0703FFEC0
:101A10007FC0601FFE7FC0401FFC7FC0000FF8FF2B
:101A2000C01007F0FFC0780001FFC0F80003FFC13D
:101A3000F80007FFC3FC000FFFC7FE001FFF8FFF6A
:101A4000007FFF9FFFE7FFFFFFFFFFFFFFFFFFFF9D
:101A5000FFFFFFFFFFFFFFFFFFFEFFFFFFFFFC7F1A
:101A6000FFFFFFF07FFFFFFFE07FFFFFFFC07FFF73
:101A7000FFFF007FFFFFFE007FFFFFF800FFFFFF7B
:101A8000F000FFFFFFC0C0FFFFFF03C0FFFFF40F28
:101A9000C0FFFFE0000007FFC0000001FFC0000022
:101AA00001FFC0000001FFE0000001FFFFFFC0F3E5
:101AB000FFFFFFC07FFFFFFFC0FFFFFFFFC0FFFF73
:101AC000FFFFE1FFFFFFFFFFFFFFFFFFFFFFFFFF44
:101AD000FFFFFFFFFFFFFFFF7FFFFFFFFF3FFFFF56
:101AE00087FF3FFFFE0FFF1FFFE01FFF1FFC001FD0
:101AF000FF3FC0081FFF3FC0381FFF3FC0381FFF18
:101B00003FC0301FFE7FC0301FFE7FC0380FFCFF7C
:101B1000C03807F0FFC0380001FFC03C0003FFC021
:101B20007C0007FF807E000FFFC0FF803FFFFFFFAC
:101B3000F3FFFFFFFFFFFFFFFFFFFFFFFFFFFFFFC1
:101B4000FFFFFFFFFFFFFFFFFE07FFFFFFE000FFBC
:101B5000FFFF80003FFFFE00000FFFFC000007FFBB
:101B6000F8000003FFF0780003FFF1F0FC01FFE351
:101B7000F1FC01FFE7E3FE01FFC7E3FE01FFCFE356
:101B8000FE01FFCFE3FE01FFCFE1FC01FFCFF1FC3F
:101B900001FFC7F07801FFC3F80003FFE3F8000777
:101BA000FFF7FC000FFFFFFF001FFFFFFFE0FFFF3D
:101BB000FFFFFFFFFFFFFFFFFFFFFFFFFFFFFFF044
:101BC0007FFFFFFFE03FFFFFFFC03FFFFFFFC03F82
:101BD000FFFFFFC01FFFFE1FC03FFFF00FC03FFF12
:101BE000C00FE03FFF000FE03FFC003FE03FF0018F
:101BF000FFE03FC07FFFE07F03FFFFE0781FFFFFB4
:101C0000E000FFFFFFE007FFFFFFE01FFFFFFFC057
:101C10007FFFFFFFC1FFFFFFFFC7FFFFFFFF8FFF3A
:101C2000FFFFFFBFFFFFFFFFFFFFFFFFFFFFFFFF04
:101C3000FFFFFFFFFFFFFFFFFFFFFFFFFFFFE07F53
:101C4000FFFFFF801FFFFFFF0007FFFC0E0007FFE5
:101C5000F0020003FFE0000003FFE0C03E01FFC30D
:101C6000F07F01FFC3F0FF01FFC3F0FF01FFC3F0EE
:101C7000FF01FFC3F07F01FFE1E07E01FFE00018FC
:101C800003FFF0000003FFFC0E0007FFFFFF00074B
:101C9000FFFFFF801FFFFFFFE07FFFFFFFFFFFFF52
:101CA000FFFFFFFFFFFFFFFFFFFFFFFFFFFFFFFF44
:101CB00080FFFFFFFE001FFE7FF8000FFE3FF000D9
:101CC00007FE3FE00003FE3FE00003FE3FE007C3E6
:101CD000FE3FC00FE1FC7FC01FF1FC7FC01FF1FC85
:101CE0007FC03FF9F8FFC03FF1F8FFC01FF1F1FFDF
:101CF000E01FF1E3FFE00FE3C7FFF007C30FFFF0C2
:101D000000001FFFF800003FFFFC0000FFFFFF0086
:101D100003FFFFFFE01FFFFFFFFFFFFFFFFFFFFFCE
:101D2000FFFFFFFFFFFFFFFFFFFFFFFFFFFFFFFFC3
:101D3000FFFFFFFFFFFFFFFFFFFFFFFFFFFFFFFFB3
:101D4000FFFFFFFFFFFFFFFFFFFFFFFFFFFFFFFFA3
:101D5000FFFFFFFFFFFFFFFFFFFFFFFFFFFFFFFF93
:101D6000FFFFFFFFFFFFFFFFFFFFFFFFFFFFFFFF83
:101D7000FFFFFFFFFFFFFFFFFFFFFFFFFFFFFFFF73
:101D8000FFFFFFFFFFFFFFFFFFFFFFFFFFFFFFFF63
:101D9000FFFFFFFFFFFFFFFFFFFFFFFFFFFFFFFF53
:101DA000FFFFFFFFFFFFFFFFFFFFFFFFFFFFFFFF43
:101DB000FFFFFFFFFFFFFFFFFFFFFFFFFFFFFFFF33
:101DC000FFFFFFFFFFFFFFFFFFFFFFFFFFFFFFFF23
:101DD000FFFFFFFFFFFFFFFFFFFFFFFFFFFFFFFF13
:101DE000FFFFFFFFFFFFFFFFFFFFFFFFFFFFFFFF03
:101DF000FFFFFFFFFFFFFFFFFFFFFFFFFFFFFFFFF3
:101E0000FFFFFFFFFFFFFFFFFFFFFFFFFFFFFFFFE2
:101E1000FFFFFFFFFFFF9FFFFFFFFFFFFFFFFFFF32
:101E2000FFFFFFFFFFFFCFFFFFFFFFFFFFFFFFFFF2
:101E3000FFFFFFFFFFFFC7FFFFFFFFFFFFFFFFFFEA
:101E4000FFFFFFFFFFFFC7FFFFFFFFFFFFFFFFFFDA
:101E5000FFFFFFFFFFFFC7FFFFFFFFFFFFFFFFFFCA
:101E6000FFFFFFFFFFFFC7FFFFFFFFFFFFFFFFFFBA
:101E7000FFFFFFFFFFFF87FFFFFFFFFFFFFFFFFFEA
:101E8000FFFFFFFFFFFF87FFFFFFFFFFFFFFFFFFDA
:101E9000FFFFFFFFFFFE07FFFFFFFFFFFFFFFFFF4B
:101EA000FFFFFFFFFFFC07FFFFFFFFFFFFFFFFFF3D
:101EB000FFFFFFFFFFDC07FFFFFFFFFFFFFFFFFF4D
:101EC000FFFFFFFFFF980FFFFFFFFFFFFFFFFFFF79
:101ED000FFFFFFFFFFB80FFFFFFFFFFFFFFFFFFF49
:101EE000FFFFFFFFFF380FFFFFFFFFFFFFFFFFFFB9
:101EF000FFFFFFFFFF380FFFFFFFFFFFFFFFFFFFA9
:101F0000FFFFFFFFFF100FFFFFFFFFFFFFFFFFFFC0
:101F1000FFFFFFFFFF000FFFFFFFFFFFFFFFFFFFC0
:101F2000FFFFFFFFFF000FFFFFFFFFFFFFFFFFFFB0
:101F3000FFFFFFFFFF000FFFFFFFFFFFFFFFFFFFA0
:101F4000FFFFFFFFFF000FFFFFFFFFFFFFFFFFFF90
:101F5000FFFFFFFFFF000FFFFFFFFFFFFFFFFFFF80
:101F6000FFFFFFFFFF000FFFFFFFF8003FFFFFFF36
:101F7000FFFFFFFFFF800FFFFFFFC7FFE7FFFFFF30
:101F8000FFFFFFFFFF800FFFFFFF3FFFE0001FFF8E
:101F9000FFFFFFFFFFC007FFFFFCFFFE1FFFE0FF8B
:101FA000FFFFFFFFFFE007FFFFF3FFF9FFFFFF1F4A
:101FB000FFFFFFFFFFF003FFFFEFFFC7FFFFFFE79C
:101FC000FFFFFFFFFFF800FFFF1FFF3FFFFFFFF8CE
:101FD000FFFFFFFFFFFC001FE03FFE7FFFFFFFFF53
:101FE0003FFFFFFFFFFF0000027FF9FFFFFFFFFF42
:101FF000CFFFFFFFFFFFC0001EFFF3FFFFFFFC014D
:10200000F7FFFFFFFFFFFC03FDFFEFFFFFFFE00017
:1020100019FFFFFFFFFFFFFFFBFFDFFFFFFF800058
:1020200000FFFFFFFFFFFFFFF7FFBFFFFFFE001FE7
:10203000E03FFFFFFFFFFFFFEFFF7FFFFFFC007FA1
:10204000FE1FFFFFFFFFFFFFDFFE7FFFFFF800FF28
:10205000FFCFFFFFFFFFFFFF9FFEFFFFFFF801FF26
:10206000FFFFFFFFFFFFFFFFBFFDFFFFFFF003FFCD
:10207000FFFFFFFFFFFFFFFF7FFBFFFFFFF003FFFF
:10208000FFFFFFFFC01FFFFEFFFBFFFFFFE003FF9F
:10209000FFFFFFFE000FFFFCFFF7FFFFFFE003FF66
:1020A000FFFFFFFCC00FFFFDFFF7FFFFFFE007FF93
:1020B000FFFFFFFBF00FFFFBFFEFFFFFFFE007FF5E
:1020C000FFFFFFF3F80FFFF7FFEFFFFFFFE407FF4E
:1020D000FFFFFFF7F83FFFE7FFDFFFFFFFE607FF28
:1020E000FFFFFFF7FC3FFFEFFFDFFFFFFFE607FF0C
:1020F000FFFFFFF7FC3FFFDFFFDFFFFFFFE603FF10
:10210000FFFFFFF7F87FFFBFFFBFFFFFFFF603FFF3
:10211000FFFFFFF7F87FFF7FFFBFFFFFFFF703FF22
:10212000FFFFFFF7F0FFFEFFFFBFFFFFFFFF03FF13
:10213000FFFFFFF7FFFFF9FFFF7FFFFFFFFF83FFB9
:10214000FFFFFFFBFFFFF3FFFF7FFFFFFFFFC3FF6B
:10215000FFFFFFFDFFFFEFFFFF7FFFFFFFFFE3FF3D
:10216000FFFFFFFCFFFF9FFFFF7FFFFFFFFFE3FF7E
:10217000FFFFFFFE7FFE7FFFFF7FFFFFFFFFE3FF0D
:10218000FFFFFFFF8FE1FFFFFF7FFFFFFFFFE3FF89
:10219000FFFFFFFFF01FFFFFFF7FFFFFFFFFE7FFD6
:1021A000FFFFFFFFFFFFFFFFFEFFFFFFFFFFCFFF70
:1021B000FFFFFFFFFFFFFFFFFEFFFFFFFFFFFFFF30
:1021C000FFFFFFFFFFFFFFFFFEFFFFFFFFFFFFFF20
:1021D000FFFFFFFFFFFFFFFFFEFFFFFF7FFFFFFF90
:1021E000FFFFFFFFFFFFFFFFFFFFFFFE3FFDFFFFC2
:1021F000FFFFFFFFFFFFFFFFFFFFFFFE3FF9FFFFB6
:10220000FFFFFFFFFFFFFFFFFFFFFFFE1FF1FFFFCD
:10221000FFFFFFFFFFFFFFFFFFFFFFFE07C1FFFF05
:10222000FFFFFFFFFFFFFFFFFFFFFFFE0001FFFFBC
:10223000FFFFFFFFFFFFFFFFFFFFFFFF0001FFFFAB
:10224000FFFFFFFFFFFFFFFFFFFFFFFF0001FFFF9B
:10225000FFFFFFFFFFFFFFFFFFFFFFFF8003FFFF09
:10226000FFFFFFFFFFFFFFFFFFFFFFFF8003FFFFF9
:10227000FFFFFFFFFFFFFFFFFFFFFFFFE003FFFF89
:10228000FFFFFFFFFFFFFFFFFFFFFFFFF007FFFF65
:10229000FFFFFFFFFFFFFFFFFFFFFFFFF00FFFFF4D
:1022A000FFFFFFFFFFFFFFFFFFFFFFFFC00FFFFD6F
:1022B000FBFFFFFFFFFFFFFFFFFFFFFFE01FFFFC34
:1022C00003FFFFFFFFFFFFFFFFFFFFFFF07FFFFDAB
:1022D000FBFFFFFFFFFFFFFFFFFFFFFFFFFFFFFD14
:1022E000FBFFFFFFFFFFFFFFFFFFFFFFFFFFFFFD04
:1022F000FBFFFFFFFFFFFFFFFFFFFFFFFFFFFFFCF5
:10230000F3FFFFFFFFFFFFFFFFFFFFFFFFFFFFFEEA
:10231000F7FFFFFFFFFFFFFFFFFFFFFFFFFFFFFFD5
:102320000FFFFFFFFFFFFFFFFFFFFFFFFFFFFFFFAD
:10233000FFFFFFFFFFFFFFFFFFFFFFFFFFFFFFFFAD
:10234000FBFFFFFFFFFFFFFFFFFFFFFFFFFFFFFFA1
:10235000E3FFFFFFFFFFFFFFFFFFFFFFFFFFFFFFA9
:102360008FFFFFFFFFFFFFFFFFFFFFFFFFFFFFFEEE
:102370001FFFFFFFFFFFFFFFFFFFFFFFFFFFFFFE4E
:102380005FFFFFFFFFFFFFFFFFFFFFFFFFFF07FFF5
:102390009BFFFFFFFFFFFFFFFFFFFFFFFFFFFBFFB5
:1023A000E3FFFFFFFFFFFFFFFFFFFFFFFFFFFBFF5D
:1023B000FBFFFFFFFFFFFFFFFFFFFFFFFFFFFDFF33
:1023C000FFFFFFFFFFFFFFFFFFFFFFFFFFFFFDFD21
:1023D000FBFFFFFFFFFFFFFFFFFFFFFFFFFFFBFC18
:1023E00003FFFFFFFFFFFFFFFFFFFFFFFFFFFBFDFF
:1023F000FBFFFFFFFFFFFFFFFFFFFE7FFFFFF7FF7A
:10240000FBFFFFFFFFFFFFFFFFFFFF9FFFFFEFFF50
:10241000FBFFFFFFFFFFFFFFFFFFFFE7FFFF9FFF48
:10242000FBFFFFFFFFFFFFFFFFFFFFF8FFFC7FFF4A
:10243000F3FFFFFFFFFFFFFFFFFFFFFF0003FFFDB5
:10244000FBFFFFFFFFFFFFFFFFFFFFFFFFFFFFFCA3
:1024500003FFFFFFFFFFFFFFFFFFFFFFFFFFFFFD8A
:10246000FBFFFFFFFFFFFFFFFFFFFFFFFFFFFFFF80
:10247000FFFFFFFFFFFFFFFFFFFFFFFFFFFFFFFF6C
:10248000FBFFFFFFFFFFFFFFFFFFFFFFFFFFFFFF60
:10249000E3FFFFFFFFFFFFFFFFFFFFFFFFFFFFFF68
:1024A0008FFFFFFFFFFFFFFFFFFFFFFFFFFFFFFEAD
:1024B0001FFFFFFFFFFFFFFFFFFFFFFFFFFFFFFE0D
:1024C0005FFFFFFFFFFFFFFFFFFFFFDFFFFFFFFFDC
:1024D0009BFFFFFFFFFFFFFFFFFFFF9FFFFFFFFFD0
:1024E000E3FFFFFFFEFFFFFFFFFFFF5FFFFFFFFFB9
:1024F000FBFFFFFFFEFFFFFFFFFFFCFFFFFFFFFFF4
:10250000FFFFFFFFF0FFFFFFFFFFFAFFFFFFFFFDF1
:10251000FBFFFFF700FFFFFFFFFFF6DFFFFFFFFC02
:1025200003FFFFF000FFFFFFFFFFC01FFFFFFFFEE5
:10253000FBFFFFF00EFFFFFFFFFFC01FFFFFFFFFCE
:102540003FFFFFF0FFFFFFFFFFFFFFDFFFFFFFFF8A
:10255000DFFFFFF7FFFFFFFFFFFFFFFFFFFFFFFDB5
:10256000E7FFFFF77FFFFFFFFFFFFFFFFFFFFFFC1E
:1025700003FFFFFF7CFFFFFFFFFFFC3FFFFFFFFDAF
:10258000FFFFFFFF00FFFFFFFFFFF81FFFFFFFFF41
:10259000FFFFFFFF00FFFFFFFFFFF3DFFFFFFFFF76
:1025A000FFFFFFFF03FFFFFFFFFFF7DFFFFFFFFF5F
:1025B000FFFFFFFFBFFFFFFFFFFFF1DFFFFFFFFF99
:1025C000FFFFFFFFBFFFFFFFFFFFF9BFFFFFFFFFA1
:1025D0000FFFFFFF70FFFFFFFFFFFFFFFFFFFFFE8B
:1025E000F7FFFFFF00FFFFFFFFFFF63FFFFFFFFDCD
:1025F000FBFFFFFF00FFFFFFFFFFF01FFFFFFFFDDF
:10260000FDFFFFFF0EFFFFFFFFFFC1DFFFFFFFFD2D
:10261000FDFFFFFFFEFFFFFFFFFFC7DFFFFFFFFD27
:10262000FAFFFFFFFFFFFFFFFFFFF7FFFFFFFFFEC8
:10263000F6FFFFFFE1FFFFFFFFFFF71FFFFFFFFFB9
:102640000FFFFFFF81FFFFFFFFFFF01FFFFFFFFFF7
:10265000FFFFFFFF80FFFFFFFFFF90DFFFFFFFFD9A
:10266000FBFFFFFF3CFFFFFFFFFF9FFFFFFFFFFCA4
:1026700003FFFFFF7EFFFFFFFFFFF63FFFFFFFFDB2
:10268000FBFFFFFF4EFFFFFFFFFFF01FFFFFFFFFFE
:10269000FFFFFFFF0DFFFFFFFFFFF1DFFFFFFFFD6C
:1026A000FFFFFFFF8BFFFFFFFFFFFFDFFFFFFFFDD0
:1026B000FFFFFFFFFFFFFFFFFFFFFFDFFFFFFFFC4D
:1026C0007FFFFFFFFCFFFFFFFFFFF33FFFFFFFFF69
:1026D0003BFFFFEFC0FFFFFFFFBFF0FFFFFFFFFF6C
:1026E00083FFFFEC00FFFFFFFE3FFFFFFFFFFFFC4C
:1026F0003BFFFFE003FFFFFFB03FFC3FFFFFFFFC9E
:10270000FFFFFFE03FFFFFFF81BFF81FFFFFFFFD5F
:10271000FFFFFFE3BFFFFFFF8BFFF2DFFFFFFFFFC6
:10272000FFFFFFFF70FFFFFFB9FFF6DFFFFFFFFDB9
:10273000FFFFFFFF00FFFFFFB8FFF0DFFFFFFFFC21
:1027400007FFFFFF00FFFFFFB23FF9BFFFFFFFFDE5
:10275000FBFFFFFF0EFFFFFF873FFFFFFFFFFFFFB6
:10276000FBFFFFFFFEFFFFFFCFBFFFFFFFFFFFFFEE
:10277000FBFFFFFFFFFFFFFFFFFFFFFFFFFFFFFD6F
:10278000FBFFFFFFFFFFFFFFF87FFFDFFFFFFFFC07
:1027900007FFFFFFFFFFFFFFF03FFF9FFFFFFFFD72
:1027A000FFFFFFFFFFFFFFFFE5BFFF5FFFFFFFFF33
:1027B000FFFFFFFFFFFFFFFFEDBFFCFFFFFFFFFD80
:1027C000FBFFFFFFFFFFFFFFE1BFFAFFFFFFFFFC83
:1027D00003FFFFFFFFFFFFFFF37FF6DFFFFFFFFEBB
:1027E000FBFFFFFFFFFFFFFFFFFFC01FFFFFFFFF1C
:1027F0003FFFFFFFFFFFFFFFFF7FC01FFFFFFFFF48
:10280000DFFFFFFFFFFFFFFFF33FFFDFFFFFFFFDE6
:10281000E7FFFFFFFFFFFFFFE1BFFFFFFFFFFFFC41
:1028200003FFFFFFFFFFFFFFEC3FFFFFFFFFFFFD89
:10283000FFFFFFFFFFFFFFFFE67FF71FFFFFFFFF29
:10284000FFFFFFFFFFFFFFFFF7FFF01FFFFFFFFF8F
:10285000EFFFFFFFFFFFFFFFFFFFF0FFFFFFFFFFA7
:10286000EFFFFFFFFFFFFFFFF87FFBFFFFFFFFFF13
:10287000EFFFFFFFFFFFFFFFF03FF3FFFFFFFFFF53
:10288000FFFFFFFFFFFFFFFFE7BFF3FFFFFFFFFDBE
:10289000FBFFFFFFFFFFFFFFEFBFFC3FFFFFFFFC62
:1028A00003FFFFFFFFFFFFFFEF3FF81FFFFFFFFDED
:1028B000FBFFFFFFFFFFFFFFE07FF2DFFFFFFFFDFA
:1028C000FBFFFFFFFFFFFFFFF0FFF6DFFFFFFFFD56
:1028D000FBFFFFFFFFFFFFFFFFFFF0DFFFFFFFFC3E
:1028E000F3FFFFFFFFFFFFFFFE3FF9BFFFFFFFFE0C
:1028F000F7FFFFFFFFFFFFFF603FFFFFFFFFFFFF4F
:102900000FFFFFFFFFFFFFFF01BFFC3FFFFFFFFFC8
:10291000FFFFFFFFFFFFFFFF1FFFF81FFFFFFFFD90
:10292000FBFFFFFFFFFFFFFFEC7FF3DFFFFFFFFC7D
:1029300003FFFFFFFFFFFFFFE03FF7DFFFFFFFFDAC
:10294000FBFFFFFFFFFFFFFFE3BFF71FFFFFFFFFDF
:10295000FFFFFFFFFFFFFFFFFF7FF01FFFFFFFFFF6
:10296000FFFFFFFFFFFFFFFFFC3FF0DFFFFFFFFE6A
:1029700073FFFFFFFFFFFFFFE03FFFFFFFFFFFFDD4
:10298000BBFFFFFFFFFFFFFFE3BFFF9FFFFFFFFD59
:10299000DBFFFFFFFFFFFFFFFFFFF39FFFFFFFFDD9
:1029A000DBFFFFFFFFFFFFFFEC7FF3FFFFFFFFFCFD
:1029B000E7FFFFFFFFFFFFFFE03FFFFFFFFFFFFF1E
:1029C000FFFFFFFFFFFFFFFF83BFFFFFFFFFFFFDD5
:1029D000FBFFFFFFFFFFFFFF8FBFFFFFFFFFFFFCBE
:1029E00003FFFFFFFFFFFFFFEFFFFFFFFFFFFFFD05
:1029F000DBFFFFFFFFFFFFFFEE3FFFDFFFFFFFFDFE
:102A0000DFFFFFFFFFFFFFFFE03FF99FFFFFFFFD3D
:102A1000DFFFFFFFFFFFFFFF21BFF11FFFFFFFFEF3
:102A20003FFFFFFFFFFFFFFF3FFFF71FFFFFFFFF1E
:102A3000FFFFFFFFFFFFFFFFF87FF69FFFFFFFFD98
:102A4000FBFFFFFFFFFFFFFFF03FF09FFFFFFFFCDB
:102A500003FFFFFFFFFFFFFFE7BFF9FFFFFFFFFDE2
:102A6000FBFFFFFFFFFFFFFFEFBFFFFFFFFFFFFFCA
:102A7000FBFFFFFFFFFFFFFFEF3FFC77FFFFFFFFC5
:102A8000FBFFFFFFFFFFFFFFE07FF837FFFFFFFFC8
:102A9000FBFFFFFFFFFFFFFFF0FFF3A7FFFFFFFFBD
:102AA000F3FFFFFFFFFFFFFFFFFFF7AFFFFFFFFF9A
:102AB000FBFFFFFFFFFFFFFFEE3FF78FFFFFFFFF73
:102AC000E3FFFFFFFFFFFFFFE03FF01FFFFFFFFF00
:102AD0008FFFFFFFFFFFFFFFE1FFF87FFFFFFFFE1C
:102AE0001FFFFFFFFFFFFFFFF7FFFFFFFFFFFFFEDF
:102AF0005FFFFFFFFFFFFFFFEE3FFF9FFFFFFFFFB7
:102B00009BFFFFFFFFFFFFFFE03FFF9FFFFFFFFF78
:102B1000E3FFFFFFFFFFFFFFF1BFFFFFFFFFFFFF2F
:102B2000FBFFFFFFFFFFFFFFFFFFFFFFFFFFFFFFB9
:102B3000FFFFFFFFFFFFFFFFFF3FFC3FFFFFFFFD2A
:102B4000FFFFFFFFFFFFFFFFE73FF81FFFFFFFFD56
:102B5000FFFFFFFFFFFFFFFFE7FFF3DFFFFFFFFCCC
:102B60007FFFFFFFFFFFFFFFFFFFF7DFFFFFFFFF1D
:102B70003BFFFFFFFFFFFFFFFFFFF79FFFFFFFFF91
:102B800083FFFFFFFFFFFFFFFFFFF03FFFFFFFFCA3
:102B90003BFFFFE7FFFFFFFFFFFFF87FFFFFFFFCAB
:102BA000FFFFFFE7FFFFFFFFFFFFFFFFFFFFFFFD4F
:102BB000FFFFFFE7FFFFFFFFFFFFFC3FFFFFFFFF00
:102BC000FFFFFFFFFDFFFFFFFFFFF01FFFFFFFFF06
:102BD000FFFFFFFF8CFFFFFFFFFFE3DFFFFFFFFFB4
:102BE000FFFFFFFF8CFFFFFFFFFFCBDFFFFFFFFFBC
:102BF000FFFFFFFF06FFFFFFFFFF9B9FFFFFFFFFA2
:102C00000FFFFFFF66FFFFFFFFFFB83FFFFFFFFE65
:102C1000F7FFFFFF60FFFFFFFFFFBC7FFFFFFFFD30
:102C2000FBFFFFFF21FFFFFFFFFFFFFFFFFFFFFD98
:102C3000FBFFFFFF31FFFFFFFFFFFFFFFFFFFFFD78
:102C4000FBFFFFFF3FFFFFFFFFFFFBBFFFFFFFFD9E
:102C5000FBFFFFFF7FFFFFFFFFFFFD7FFFFFFFFC8D
:102C6000FBFFFFFFFFFFFFFFFFFFFEFFFFFFFFFF79
:102C7000FFFFFFFFFFFFFFFFFFFFFD7FFFFFFFFFE6
:102C80000FFFFFFFFFFFFFFFFFFFFBBFFFFFFFFE89
:102C9000F7FFFFFFFFFFFFFFFFFFFFFFFFFFFFFD4E
:102CA000FBFFFFFFFFFFFFFFFFFFFFFFFFFFFFFD3A
:102CB000FBFFFFFFFFFFFFFFFFFFFC3FFFFFFFFDED
:102CC000FBFFFFFFFFFFFFFFFFFFF01FFFFFFFFD09
:102CD000FBFFFFFFFFFFFFFFFFFFE3DFFFFFFFFE45
:102CE000F7FFFFFFFFFFFFFFFFFFCBDFFFFFFFFF50
:102CF0000FFFFFFFFFFFFFFFFFFF9B9FFFFFFFFF98
:102D0000FFFFFFFFFFFFFFFFFFFFB83FFFFFFFFFDA
:102D1000FFFFFFFFF1FFFFFFFFFFBC7FFFFFFFFF94
:102D2000FBFFFFEE00FFFFFFFFFFFFFFFFFFFFFFC7
:102D3000FFFFFFE000FFFFFFEFFFFC3FFFFFFFFF94
:102D4000FFFFFFE00EFFFFFFABFFF01FFFFFFFFFE6
:102D5000F8FFFFE1FEFFFFFFC7FFE3DFFFFFFFFF1D
:102D6000FFFFFFFFFFFFFFFFABFFCBDFFFFFFFFD1D
:102D7000FBFFFFFFE1FFFFFFEFFF9B9FFFFFFFFC5C
:102D800003FFFFFF80FFFFFFFFFFB83FFFFFFFFDD7
:102D9000FBFFFFFF80FFFFFFFFFFBC7FFFFFFFFF89
:102DA000FBFFFFFF3EFFFFFFFFFFFFFFFFFFFFFFF8
:102DB000FBFFFFFF7EFFFFFFFFFFFF9FFFFFFFFF08
:102DC000FBFFFFFF60FFFFFFFFFFFF9FFFFFFFFF16
:102DD000F3FFFFFF80FFFFFFFFFFFFFFFFFFFFFC91
:102DE000FFFFFFFF00FFFFFFFFFFFFFFFFFFFFFDF4
:102DF000FFFFFFFF0EFFFFFFFFFFFC77FFFFFFFD61
:102E0000FBFFFFFFFEFFFFFFFFFFF837FFFFFFFCA9
:102E100003FFFFFFFFFFFFFFFFFFF3A7FFFFFFFD24
:102E2000FBFFFFFFFFFFFFFFFFFFF7AFFFFFFFFD10
:102E3000FFFFFFFFFFFFFFFFFFFFF78FFFFFFFFC1D
:102E4000FFFFFFFFFFFFFFFFFFFFF01FFFFFFFFD83
:102E5000FBFFFFFFFFFFFFFFFFFFF87FFFFFFFFC10
:102E600003FFFFFFFFFFFFFFFFFFFFFFFFFFFFFD70
:102E7000FBFFFFFFFFFFFFFFFFFFFC3FFFFFFFFD2B
:102E8000FBFFFFFFFFFFFFFFFFFFF81FFFFFFFFD3F
:102E9000FBFFFFFFFFFFFFFFFFFFF3DFFFFFFFFC75
:102EA000F3FFFFFFFFFFFFFFFFFFF7DFFFFFFFFE67
:102EB000F7FFFFFFFFFFFFFFFFFFF79FFFFFFFFF92
:102EC0000FFFFFFFFFFFFFFFFFFFF03FFFFFFFFFD1
:102ED000FFFFFFFFFFFFFFFFFFFFF87FFFFFFFFF89
:102EE000FFFFFFFFFFFFFFFFFFFFFFFFFFFFFFFFF2
:102EF000FBFFFFFFFFFFFFFFFFFFFFFFFFFFFFFFE6
:102F0000FFFFFFFFFFFFFFFFFFFFFFFFFFFFFFFFD1
:102F1000FFFFFFFFFFFFFFFFFFFFFFFFFFFFFFFFC1
:102F2000FFFFFFFFFFFFFFFFFFFFFFFFFFFFFFFFB1
:102F3000FFFFFFFFFFFFFFFFFFFFFFFFFFFFFFFFA1
:102F4000FFFFFFFFFFFFFFFFFFFFFFFFFFFFFFFF91
:102F5000FFFFFFFFFFFFFFFFFFFFFFFFFFFFFFFF81
:102F6000FFFFFFFFFFFFFFFFFFFFFFFFFFFFFFFF71
:102F7000FFFFFFFFFFFFFFFFFFFFFFFFFFFFFFFF61
:102F8000FFFFFFFFFFFFFFFFFFFFFFFFFFFFFFFF51
:102F9000FFFFFFFFFFFFFFFFFFFFFFFFFFFFFFFF41
:102FA000FFFF000000000000000000000000000023
:102FB0000000000000000000000000000000000011
:102FC0000000000000000000000000000000000001
:102FD00000000000000000000000000000000000F1
:102FE00000000000000000000000000000000000E1
:102FF00000000000000000000000000000000000D1
:1030000000000000000000000000000000000000C0
:1030100000000000000000000000000000000000B0
:1030200000000000000000000000000000000000A0
:103030000000000000000000000000000000000090
:103040000000000000000000000000000000000080
:103050000000000000000000000000007C000000F4
:10306000000000000000000000000000FC00000064
:10307000000000000000000000000000FF007E00D3
:10308000000000000000000000000000FF81FF00C1
:10309000000000000000000000000000FF83FC00B2
:1030A000000000000000000000000000FFC7F80062
:1030B000000000000000000000000000FFC7F0005A
:1030C000000000000000000000000000FFE7F0002A
:1030D000000000000000000000000000FF67F0009A
:1030E000000000000000000000000000BEC7F0006B
:1030F0000000000000000000000000003C0FE000A5
:10310000000000000000000000000001FF7FC00080
:10311000000000000000000000000001FFFF800030
:10312000000000000000000000000001FFFE0000A1
:103130000000000000000000000007E1FFFC0000AC
:103140000000000000000000000007F1FFF8000090
:103150000000000000000000000007F87FF80000F9
:103160000000000000000000000007FC3FF8000025
:103170000000000000000000000003FF1FF8000036
:103180000000000000000000000000FFFFFC000045
:103190000000000000000000000000FFFFFC000035
:1031A00000000000000000000000007FFFFC0000A5
:1031B00000000000000000000000003FFFFE0000D3
:1031C00000000000000000000000000FC3FE00002F
:1031D000000000000000000000000000007E000071
:1031E000000000000000000000000000003F0000A0
:1031F000000000000000000000000000003F800010
:1032000000000000000000000000000000000000BE
:1032100000000000000000000000000000000000AE
:10322000000000000000000000000000000000009E
:10323000000000000000000000000000000000008E
:10346000000000000000000001C00000000000009B
:10347000000000000000000001E00000000000006B
:10348000000000000000000000E00000000000005C
:10349000000000000000000000F00000000000003C
:1034A000000000000000000001F00000000000002B
:1034B000000000000000000007F80000000000000D
:1034C00000000000000000001FFC000000000000E1
:1034D00000000000000000001FFE000000000000CF
:1034E00000000000000000003FFE0000000000009F
:1034F00000000000000000003FFF0000000000008E
:10350000000000000001FFE03FFF0000000000009D
:1035100000000000000FFFF83FFF00000000000067
:10352000000000000004FFFC3FFF0000000000005E
:103530000000000000007FFF3FFF000000000000CF
:103540000000000000007FFFFFFF000000000000FF
:103550000000000000007FFFFFFF000000000000EF
:103560000000000003003FFFFFFF0000000000001C
:103570000000000003003FFFFFFE3C0000000000D1
:1035800000000000E7001FFFEBFFFF8000000000CD
:1035900000000000E7001FFFE9FFFFC0000000007F
:1035A00000000001E7000FFFF0FFFFE00000000057
:1035B000000000010B0003FFF3FFFFF0000000001C
:1035C000000000010B0001FFCFFFFFF8000000002A
:1035D000000000011B00003FF3E7FFFC00000000BB
:1035E00000000001F300003FF3F7FFFF00000000C0
:1035F00000000000F300007FF1FBFFFF80000000EF
:1036000000000000E00000FFE3E7FFFF8000000093
:1036100000000000000001FFFB3FFFFF80000000F2
:1036200000000000070001FFF91FFFF9C0000000C3
:1036300000000000070003FFFFFFFFF00000000094
:1036400000000000070003FFFFFFFFE00000000094
:1036500000000000000007FFFFFFFFC000000000A7
:103660000000000000000FFFFFFFE300000000006B
:103670000000000000001FFFFDFFE0000000000050
:10368000000000003C201FFFFBFFF00000000000D6
:10369000000000007E2003FFF3FFF00000000000A8
:1036A00000000000FE6003FFC3FFF0000000000008
:1036B00000000001C24001FF03FFF0000000000015
:1036C0000000000102C0003803FFF000000000000D
:1036D000000000010380000001FFE0000000000086
:1036E000000000010780000001FFE0000000000072
:1036F00000000001FF00000000FFE00000000000EB
:1037000000000000FE00000000FFE00000000000DC
:103710000000000078000000003FE000000E000004
:103720000000000000000000001FC000000E0000AC
:103730000000000000000000000F8000000E0000EC
:103740000000000000000000000F0000000E00005C
:10375000000000000000000000070000000E000054
:10376000000000000000000000078000000E0000C4
:1037700000000000000000000003C000000E000078
:10378000000000000000000000018000000E0000AA
:10379000000000000000000000000000000E00001B
:1037A000000000000000000000000000000E00000B
:1037B000000000000000000000000000000E0000FB
:1037C000000000000000000000000000000E0000EB
:1037D000000000000000000000000000000E0000DB
:1037E000000000000000000000000000000E0000CB
:1037F000000000000000000000000000000E0000BB
:10380000000000000000000000000000000E0000AA
:10381000000000000000000000000000000E00009A
:10382000000000000000000000000000000E00008A
:10383000000000000000000000000000000E00007A
:10384000000000000000000000000000000E00006A
:10385000000000000000000000000000000E00005A
:10386000000000000000000000000000000E00004A
:10387000000000000000000000000000000E00003A
:10388000000000000000000000000000000E00002A
:10389000000000000000000000000000000E00001A
:1038A000000000000000000000000000000E00000A
:1038B000000000000000000000000000000E0000FA
:1038C000000000000000000000000000000E0000EA
:1038D000000000000000000000000000000E0000DA
:1038E000000000000000000000000000000E0000CA
:1038F000000000000000000000000000000E0000BA
:10390000000000000000000000000000000E0000A9
:10391000000000000000000000000000000E000099
:10392000000000000000000000000000000E000089
:10393000000000000000000000000000000E000079
:10394000000000000000000000000000000E000069
:10395000000000000000000000000000000E000059
:10396000000000000000000000000000000E000049
:10397000000000000000000000000000000E000039
:10398000000000000000000000000000000E000029
:10399000000000000000000000000000000E000019
:1039A000000000000000000000000000000E000009
:1039B000000000000000000000000000000E0000F9
:1039C000000000000000000000000000000E0000E9
:1039D000000000000000000000000000000E0000D9
:1039E000000000000000000000000000000E0000C9
:1039F000000000000000000000000000000E0000B9
:103A0000000000000000000000000000000E0000A8
:103A1000000000000000000000000000000E000098
:103A2000000000000000000000000000000E000088
:103A3000000000000100000000000000000E000077
:103A4000000000000100000000000000000E000067
:103A5000000000000F00000000000000000E000049
:103A600000000008FF00000000000000000E000041
:103A70000000000FFF00000000000000000E00002A
:103A80000000000FF100000000000000000E000028
:103A90000000000F4100000000000000000E0000C8
:103AA000000000087100000000000000000E00008F
:103AB00000000009C300000000000000000E00002C
:103AC000000000080700000000000000000E0000D9
:103AD0000000000E0C00000000000000000E0000BE
:103AE0000000000C0000000000000000000E0000BC
:103AF000000000008000000000000000000E000038
:103B0000000000008E00000000000000000E000019
:103B100000000000FF00000000000000000E000098
:103B200000000018FF00000000000000000E000070
:103B300000000018F100000000000000000E00006E
:103B4000000000180100000000000000000E00004E
:103B5000000000008000000000000000000E0000D7
:103B6000000000008300000000000000000E0000C4
:103B700000000000FF00000000000000000E000038
:103B800000000000FF00000000000000000E000028
:103B900000000000FC00000000000000000E00001B
:103BA000000000004000000000000000000E0000C7
:103BB000000000004000000000000000000E0000B7
:103BC000000000008F00000000000000000E000058
:103BD00000000000FF00000000000000000E0000D8
:103BE00000000000FF00000000000000000E0000C8
:103BF00000000000F100000000000000000E0000C6
:103C0000000000000100000000000000000E0000A5
:103C1000000000000000000000000000000E000096
:103C2000000000000300000000000000000E000083
:103C3000000000103F00000000000000000E000027
:103C400000000013FF00000000000000000E000054
:103C50000000001FFC00000000000000000E00003B
:103C60000000001FCC00000000000000000E00005B
:103C70000000001C3E00000000000000000E0000DC
:103C8000000000006F00000000000000000E0000B7
:103C900000000000E700000000000000000E00002F
:103CA00000000000E300000000000000000E000023
:103CB00000000000E100000000000000000E000015
:103CC000000000000000000000000000000E0000E6
:103CD000000000000000000000000000000E0000D6
:103CE000000000000000000000000000000E0000C6
:103CF000000000000000000000000000000E0000B6
:103D0000000000000100000000000000000E0000A4
:103D1000000000000100000000000000000E000094
:103D2000000000000F00000000000000000E000076
:103D300000000008FF00000000000000000E00006E
:103D40000000000FFF00000000000000000E000057
:103D50000000000FF100000000000000000E000055
:103D60000000000F0100000000000000000E000035
:103D7000000000080100000000000000000E00002C
:103D8000000000080300000000000000000E00001A
:103D9000000000080600000000000000000E000007
:103DA0000000000C0E00000000000000000E0000EB
:103DB00000000007FC00000000000000000E0000F2
:103DC00000000007F800000000000000000E0000E6
:103DD00000000003E000000000000000000E0000F2
:103DE000000000008000000000000000000E000045
:103DF000000000008E00000000000000000E000027
:103E000000000000FF00000000000000000E0000A5
:103E100000000000FF00000000000000000E000095
:103E200000000000F100000000400000000E000053
:103E300000000000010000000CC00000000E0000A7
:103E400000000000000000001DC00000000E000087
:103E5000000000000000000011C00000000E000083
:103E6000000000000000000012C00000000E000072
:103E700000000000000000001EC00000000E000056
:103E800000000000000000000C000000000E000018
:103E9000000000000000000000000000000E000014
:103EA000000000000000000007100000000E0000ED
:103EB00000000000001000000F900000000E000045
:103EC000000000000010000018B00000000E00000C
:103ED0000000000000F0000010A00000000E000034
:103EE000000000008FF0000010E00000000E000055
:103EF00000000000FFF000001FC00000000E0000E6
:103F000000000000FF1000000F000000000E000085
:103F100000000000F110000000000000000E000092
:103F2000000000004100000007800000000E0000BB
:103F300000000000830000001FC00000000E000011
:103F400000000000FF00000038400000000E0000EC
:103F500000000000FE00000068400000000E0000AD
:103F60000000000078000000C8C00000000E000043
:103F700000000000000000008F800000000E000024
:103F8000000000000000000087000000000E00009C
:103F9000000000000000000000000000000E000013
:103FA000000000000000000000000000000E000003
:103FB000000000000000000000000000000E0000F3
:103FC000000000000000000000000000000E0000E3
:103FD000000000000000000000000000000E0000D3
:103FE000000000000000000000000000000E0000C3
:103FF000000000000000000000400000000E000073
:10400000000000000000000008400000000E00005A
:10401000000000000000000009C00000000E0000C9
:1040200000000000000000001FC00000000E0000A3
:1040300000000000000000001E400000000E000014
:10404000000000000000000000400000000E000022
:10405000000000000000000000000000000E000052
:10406000000000000000000000400000000E000002
:1040700000000000000000000CC00000000E000066
:1040800000000000000000001DC00000000E000045
:10409000000000008060000011C00000000E000061
:1040A000000000008F70000012C00000000E000031
:1040B00000000000FF3000001EC00000000E0000E5
:1040C00000000000FF1000000C000000000E0000C7
:1040D000000000007130000000000000000E000031
:1040E000000000000170000003800000000E0000CE
:1040F000000000000FE0000037C00000000E0000CC
:1041000000000000FFC000007C400000000E000026
:1041100000000000FF800000C8400000000E00000A
:1041200000000000F000000088C00000000E000049
:1041300000000000000000009F800000000E000052
:104140000000000000000000F7000000000E00006A
:10415000000000000000000060000000000E0000F1
:10416000000000000000000000000000000E000041
:10417000000000000000000000000000000000003F
:10418000000000000000000000000000000000002F
:10419000000000000000000000000000000000001F
:1041A000000000000000000000000000000000000F
:1041B00000000000000000000000000000000000FF
:1041C00000000000000000000000000000000000EF
:1041D00000000000000000000000000000000000DF
:1041E00000000000000000000000000000000000CF
:1041F00000000000000000000000000000000000BF
:1042000000000000000000000000000000000000AE
:10421000000000000000000000000000000000009E
:104220000000FFFFFFFFFFFFFFFFFFFFFFFFFFFF9C
:10423000FFFFFFFFFFFFFFFFFFFFFFFFFFFFFFFF8E
:10424000FFFFFFFFFFFFFFFFFFFFFFFFFFFFFFFF7E
:10425000FFFFFFFFFFFFFFFFFFFFFFFFFFFFFFFF6E
:10426000FFFFFFFFFFFFFFFFFFFFFFFFFFFFFFFF5E
:10458000FFFFFFFFFFFFFFFFFFFFFFFDFFFFFFFF3D
:10459000FFFFFFFFFFFFFFFFFFFFFFF9FFFFFFFF31
:1045A000FFFFFFFFFFFFFFFFFFFFFFF3FFFFFFFF27
:1045B000FFFFFFFFFFFFFFFFFFFFFFCC03FFFFFF3A
:1045C000FFFFFFFFFFFFFFFFFFFFFF9DBDFFFFFF9F
:1045D000FFFFFFFFFFFFFFFFFFFFFE1DBEFFFFFF0F
:1045E000FFFFFFFFFFFFFFFFFFFFFE583EFFFFFF44
:1045F000FFFFFFFFFFFFFFFFFFFFFFC3BEFFFFFF48
:10460000FFFFFFFFFFFFFFFFFFFFFF8B3EFFFFFFEF
:10461000FFFFFFFFFFFFFFFFFFFFFF983EFFFFFFD2
:10462000FFFFFFFFFFFFFFFFFFFFFFF8FEFFFFFFA2
:10463000FFFFFFFFFFFFFFFFFFFFFFFFFEFFFFFF8B
:10464000FFFFFFFFFFFFFFFFFFFFFFFFFDFFFFFF7C
:10465000FFFFFFFFFFFFFFFFFFFFFFFFF9FFFFFF70
:10466000FFFFFFFFFFFFFFFFFFFFFFFFFDFFFFFF5C
:10467000FFFFFFFFFFFFFFFFFFFFBFFFFFFFFFFF8A
:10468000FFFFFFFFFFFFFFFFFFFFBFFFFFFFFFF782
:10469000FFFFFFFFFFFFFFFFFFFFBFFFFFFFFFE386
:1046A000FFFFFFFFFFFFFFFFFFF7BFFFFFFFFFE37E
:1046B000FFFFFFFFFFFFFFFFE3F13FFFFFFFFFE70C
:1046C000FFFFFFFFFFFFFFFFF87F3FFFFFFFFFCF71
:1046D000FFFFFFFFFFFFFFFFEB483FFFFFFFFFCFA5
:1046E000FFFFFFFFFFFFFFFFDB477FFFFFFFFFCF66
:1046F000FFFFFFFFFFFFFFFFDB7F7FFFFFFFFF8F5E
:10470000FFFFFFFFFFFFFFFFDB007FFFFFFFFF8FCC
:10471000FFFFFFFFFFFFFFFFDA377FFFFFFFFF8F86
:10472000FFFFFFFFFFFFFFFFE8777FFFFFFFFF8F28
:10473000FFFFFFFFFFFFFFFFE1C77FFFFFFFFF8FCF
:10474000FFFFFFFFFFFFFFFFE7EF7FFFFFFFFF8F91
:10475000FFFFFFFFFFFFFFFFFFFF3FFFFFFFFF8F99
:10476000FFFFFFFFFFFFFFFFFFFF3FFFFFFFFF0F09
:10477000FFFFFFFFFFFFFFFFFFFFFFFFFFFFFF0F39
:10478000FFFFFFFFFFFFFFFFFFFFFFFFFFFFFF0F29
:10479000FFFFFFFFFFFFFFFFFF7FFFFFFFFFFF0F99
:1047A000FFFFFFFFFFFFFFFFFF3BFFFFFFFFFF0FCD
:1047B000FFFFFFFFFFFFFFFFFF20FFFFFFFFFF0FD8
:1047C000FFFFFFFFFFFFFFFFFF7FFFFFFFFFFF0F69
:1047D000FFFFFFFFFFFFFFFFEF7FFFFFFFFFFF8FE9
:1047E000FFFFFFFFFFFFFFFFE67FFFFFFFFFFFDF92
:1047F000FFFFFFFFFFFFFFFFEE7FFFFFFFFFFFFF5A
:10480000FFFFFFFFFFFFFFFFCE1C7FFFFFFFFFFF4C
:10481000FFFFFFFFFFFFFFFFCE003FFFFFFFFFFF98
:10482000FFFFFFFFFFFFFFFFCEFFFFFFFFFFFFFFC9
:104830003FFFFFFFFFFFFFFFEEFFFFFFFFFFFFFC5C
:104840003FFFFFFFFFFFFFFFFEDFFFFFFFFFFFF860
:10485000FFFFFFFFFFFFFFFFFEE7FFFFFFFF87F107
:10486000FFFFFFFFFFFFFFFFFEE3FFFFFFFF00E390
:10487000FFFFFFFFFFFFFFFFFEFFFFFFFFFF004007
:1048800003FFFFFFFFFFFFFFFFFFFFFFFFFF000F23
:1048900003FFFFFFFFFFFFFFFFFFFFFFFFFF241FDF
:1048A000FFFFFFFFFFFFFFFFFFFFFFFFFFFF241FD3
:1048B000FFFFFFFFFFFFFFFFFFFFFFFFFFFF001FE7
:1048C000FFFFFFFFFFFFFFFFFF007FFFFFFF001F56
:1048D000FFFFFFFFFFFFFFFFFEF7FFFFFFFF001FD0
:1048E000FFFFFFFFFFFFFFFFFFE7FFFFFFFF240FBB
:1048F000FFFFFFFFFFFFFFFFFFCFFFFFFFFF2400D2
:10490000007FFFFFFFFFFFFF803FFFFFFFFF000073
:10491000F07FFFFFFFFFFFFF81FFFFFFFFFF00E3CF
:10492000FFFFFFFFFFFFFFFFFBBFFFFFFFFF03F9DD
:10493000FFFFFFFFFF83E0FFFB9FFFFFFFFFFFFC89
:10494000FFFFFFFFFF03E07FFBC7FFFFFFFFFFFE4F
:104950007FFFFFFFFF01C07FFBFEFFFFFFFFFFFFA9
:104960007FFFFFFFFF01C07FF80E3FFFFFFFFFFF4C
:104970003FFFFFFFFF01C03FFC00FFFFFFFFFFFF06
:10498000BFFFFFFFFF01C07FFFFFFFFFFFFFFFFF34
:10499000BFFFFFFFFF03E07FFFFFFFFFFFFFFFFF02
:1049A000FFFFFFFFFF83E0FFFFFFFFFFFFFFFFFFB2
:1049B000FFFFFFFFFFFFFFFFFFFFFFFFFFFFFFFF07
:1049C000FFFFFFFFFFFFFFFFFFFE7FFFFFFFFFFF78
:1049D000FFFFFFFFFFFFFFFFFFFCFFFFFFFFFFFFEA
:1049E000FFFFFFFFFFFFFFFFF0FDFFFFFFFFFFFFE8
:1049F000FFFFFFFFFFFFFFFFE37BFFFFFFFFFFFF67
:104A0000FFFFFFFFFFFFFFFFEE60FFFFFFFFFFFF66
:104A1000FFFFFFFFFFFFFFFFE89B3FFFFFFFFFFFE1
:104A2000FFFFFFFFFFFFFFFFE933BFFFFFFFFFFFB8
:104A3000FFFFFFFFFFFFFFFF8E73BFFFFFFFFFFFC3
:104A4000FFFFFFFFFFFFFFFFCF77BFFFFFFFFFFF6E
:104A5000FFFFFFFFFFFFFFFFEB37BFFFFFFFFFFF82
:104A6000FFFFFFFFFFFFFFFFE9973FFFFFFFFFFF94
:104A7000FFFFFFFFFFFFFFFFEDC03FFFFFFFFFFF57
:104A8000FFFFFFFFFFFFFFFFECE1FFFFFFFFFFFF67
:104A9000FFFFFFFFFFFFFFFFE7F3FFFFFFFFFFFF4A
:104AA000FFFFFFFFFFFFFFFFE7F3FFFFFFFFFFFF3A
:104AB000FFFFFFFFFFFFFFFFF7F9FFFFFFFFFFFF14
:104AC000FFFFFFFFFFFFFFFFFFF9FFFFFFFFFFFFFC
:104AD000FFFFFFFFFFFFFFFFFFFDFFFFFFFFFFFFE8
:104AE000FFFFFFFFFFFFFFFFFFFFFFFFFFFFFFFFD6
:104AF000FFFFFFFFFFFFFFFFFFFFFFFFFFFFFFFFC6
:104B0000FFFFFFFFFFFFFFFFFFFFFFFFFFFFFFFFB5
:104B1000FFFFFFFFFFFFFFFFFFFFFFFFFFFFFFFFA5
:104B2000FFFFFFFFFFFFFFFFFFFFFFFFFFFFFFFB99
:104B3000FFFFFFFFFFFFFFFFFFFFFFFFFFFFFFF391
:104B4000FFFFFFFFFFFFFFFFFFFFFFFFFFFFFFF381
:104B5000FFFFFFFFFFFFFFFFFFFFFFFFFFFFFFE77D
:104B6000FFFFFFFFFFFFFFFFFFFFFFFFFFFFFFE76D
:104B7000FFFFFFFFFFFFFFFFFFFFFFFFFFFFFFE75D
:104B8000C3FFFFFFFFFFFFFFFFFFFFFFFFFFFFCFA1
:104B900003FFFFFFFFFFFFFFFFFFFFFFFFFFFFCC54
:104BA0000FFFFFFFFFFFFFFFFFFFFFFFFFFF83C8B8
:104BB0001FFFFFFFFFFFFFFFFFFFFFFFFFFF00C81B
:104BC0001FFFFFFFFFFFFFFFFFFFFFFFFFFE00C410
:104BD0001FFFFFFFFFFFFFFFFFFFFFFFFFFE00863E
:104BE0001FFFFFFFFFFFFFFFFFFFFFFFFFFE4480F0
:104BF0000FFFFFFFFFFFFFFFFFFFFFFFFFFECC8068
:104C00000FFFFFFFFFFFFFFFFFFFFFFFFFFCCC8059
:104C10000FFFFFFFFFFFFFFFFFFDFFFFFFFC008017
:104C200007FFFFFFFFFFFFFFE000FFFFFFFC008427
:104C300067FFFFFFFFFFFFFFF3F1FFFFFFFE0184B0
:104C400077FFFFFFFFFFFFFFFFE7FFFFFFFFFF848F
:104C50007BFFFFFFFFFFFFFFFFEFFFFFFFFFFF8473
:104C6000FBFFFFFFFFFFFFFFF3FFFFFFFFFFFF87DC
:104C7000FBFFFFFFFFFFFFFFF1FCFFFFFFFFFFFF59
:104C8000FBFFFFFFFFFFFFFFF3F9FFFFFFFFFFFF4A
:104C9000FDFFFFFFFFFFFFFFFFE3FFFFFFFFFFFF42
:104CA000F9FFFFFFFFFFFFFFFF8FFFFFFFFFFFFF8A
:104CB000F9FFFFFFFFFFFFFFFC7FFFFFFFFFFFFF8D
:104CC000F9FFFFFFFFFFFFFFE1FFFFFFFFFFFFFF18
:104CD000F9FFFFFFFFFFFFFFE7EFFFFFFFFFFFFF12
:104CE000FFFFFFFFFFFFFFFFFFE7FFFFFFFFFFFFEC
:104CF000FFFFFFFFFFFFFFFFFFF1FFFFFFFFFFFFD2
:104D0000FFFFFFFFFFFFFFFFFFFDFFFFFFFFFFFFB5
:104D1000FFFFFFFFFFFFFFFFFFFFFFFFFFFFFFFFA3
:104D2000FFFFFFFFFFFFFFFFFFFFFFFFFFFFFFFF93
:104D3000FFFFFFFFFFFFFFFFFFFFFFFFFFFFFFFF83
:104D4000FFFFFFFFFFFFFFFFFFFFFFFFFFFFFFFF73
:104D5000FFFFFFFFFFFFFFFFFFFFFFFFFFFFFFFF63
:104D6000FFFFFFFFFFFFFFFFFFFFFFFFFFFFFFFF53
:104D7000FFFFFFFFFFFFFFFFFFFFFFFFFFFFFFFF43
:104D8000FFFFFFFFFFFFFFFFFFFFFFFFFFFFFFFF33
:104D9000FFFFFFFFFFFFFFFFFFFFFFFFFFFFFFFF23
:104DA000FFFFFFFFFFFFFFFFFFFFFFFFFFFFFFFF13
:104DB000FFFFFFFFFFFFFFFFFFFFFFFFFFFFFFFF03
:104DC000FFFFFFFFFFFFFFFFFFFFFFFFFFFFFFFFF3
:104DD000FFFFFFFFFFFFFFFFFFFFFFFFFFFFFFFFE3
:104DE000FFFFFFFFFFFFFFFFFFFFFFFFFFFFFFFFD3
:104DF000FFFFFFFFFFFFFFFFFFFFFFFFFFFFFFFFC3
:104E0000FFFFFFFFFFFFFFFFFFFFFFFFFFFFFFFFB2
:104E1000FFFFFFFFFFFFFFFFFFFFFFFFFFFFFFFFA2
:104E2000FFFFFFFFFFFFFFFFFFFFFFFFFFFFFFFF92
:104E3000FFFFFFFFFFFFFFFFFFFFFFFFFFFFFFFF82
:104E4000FFFFFFFFFFFFFFFFFFFFFFFFFFFFFFFF72
:104E5000FFFFFFFFFFFFFFFFFFFFFFFFFFFFFFFF62
:104E6000FFFFFFFFFFFFFFFFFFBFFFFFFFFFFFFF92
:104E7000FFFFFFFFFFFFFFFFFFBFFFFFFFFFFFFF82
:104E8000FFFFFFFFFFFFFFFFFF07FFFFFFFFFFFF2A
:104E9000FFFFFFFFFFFFFFFFE13BFFFFFFFFFFFF04
:104EA000FFFFFFFFFFFFFFFFEC59FFFFFFFFFFFFCB
:104EB000FFFFFFFFFFFFFFFFEB5BFFFFFFFFFFFFBA
:104EC000FFFFFFFFFFFFFFFF8A5BFFFFFFFFFFFF0B
:104ED000FFFFFFFFFFFFFFFFC843FFFFFFFFFFFFD5
:104EE000FFFFFFFFFFFFFFFFDADFFFFFFFFFFFFF17
:104EF000FFFFFFFFFFFFFFFFFFFFFFFFFFFFFFFFC2
:104F0000FFFFFFFFFFFFFFFFDFDFFFFFFFFFFFFFF1
:104F1000FFFFFFFFFFFFFFFFC0201FFFFFFFFFFF9F
:104F2000FFFFFFFFFFFFFFFFCDEFFFFFFFFFFFFFD3
:104F3000FFFFFFFFFFFFFFFFC1EFFFFFFFFFFFFFCF
:104F4000FFFFFFFFFFFFFFFFC6EFFFFFFFFFFFFFBA
:104F5000FFFFFFFFFFFFFFFFCF0FFFFFFFFFFFFF81
:104F6000FFFFFFFFFFFFFFFFFFCFFFFFFFFFFFFF81
:104F7000FFFFFFFFFFFFFFFFFFFFFFFFFFFFFFFF41
:104F8000FFFFFFFFFFFFFFFFFFFFFFFFFFFFFFFF31
:104F9000FFFFFFFFFFFFFFFFFFFFFFFFFFFFFFFF21
:104FA000FFFFFFFFFFFFFFFFFFFFFFFFFFFFFFFF11
:104FB000FFFFFFFFFFFFFFFFFFFFFFFFFFFFFFFF01
:104FC000FFFFFFFFFFFFFFFFFFFFFFFFFFFFFFFFF1
:104FD000FFFFFFFFFFFFFFFFFFFFFFFFFFFFFFFFE1
:104FE000FFFFFFFFFFFFFFFFFFFFFFFFFFFFFFFFD1
:104FF000FFFFFFFFFFFFFFFFFFFFFFFFFFFFFFFFC1
:10500000FFFFFFFFFFFFFFFFFFFFFFFFFFFFFFFFB0
:10501000FFFFFFFFFFFFFFFFFFFFFFFFFFFFFFFFA0
:10502000FFFFFFFFFFFFFFFFFFFFFFFFFFFFFFFF90
:10503000FFFFFFFFFFFFFFFFFFFFFFFFFFFFFFFF80
:10504000FFFFFFFFFFFFFFFFFFFFFFFFFFFFFFFF70
:10505000FFFFFFFFFFFFFFFFFFFFFFFFFFFFFFFF60
:10506000FFFFFFFFFFFFFFFFFFFFFFFFFFFFFFFF50
:10507000FFFFFFFFFFFFFFFFFFFFFFFFFFFFFFFF40
:10508000FFFFFFFFFFFFFFFFFFFFFFFFFFFFFFFF30
:10509000FFFFFFFFFFFFFFFFFFFFFFFFFFFFFFFF20
:1050A000FFFFFFFFFFFFFFFFFFFFFFFFFFFFFFFF10
:1050B000FFFFFFFFFFFFFFFFFFFFFFFFFFFFFFFF00
:1050C000FFFFFFFFFFFFFFFFFFB8FFFFFFFFFFFF37
:1050D000FFFFFFFFFFFFFFFFF52FFFFFFFFFFFFFBA
:1050E000FFFFFFFFFFFFFFFFF44EFFFFFFFFFFFF8C
:1050F000FFFFFFFFFFFFFFFF96003FFFFFFFFFFFE8
:10510000FFFFFFFFFFFFFFFF860FFFFFFFFFFFFF18
:10511000FFFFFFFFFFFFFFFFE053FFFFFFFFFFFF6A
:10512000FFFFFFFFFFFFFFFFE97A7FFFFFFFFFFFAA
:10513000FFFFFFFFFFFFFFFFF7C0FFFFFFFFFFFFC6
:10514000FFFFFFFFFFFFFFFFF03FFFFFFFFFFFFF3E
:10515000FFFFFFFFFFFFFFFFF77FFFFFFFFFFFFFE7
:10516000FFFFFFFFFFFFFFFFE67FFFFFFFFFFFFFE8
:10517000FFFFFFFFFFFFFFFFE6001FFFFFFFFFFF37
:10518000FFFFFFFFFFFFFFFFE67FFFFFFFFFFFFFC8
:10519000FFFFFFFFFFFFFFFFFEFFFFFFFFFFFFFF20
:1051A000FFFFFFFFFFFFFFFFFE7FFFFFFFFFFFFF90
:1051B000FFFFFFFFFFFFFFFFFFFFFFFFFFFFFFFFFF
:1051C000FFFFFFFFFFFFFFFFFFFFFFFFFFFFFFFFEF
:1051D000FFFFFFFFFFFFFFFFFFFFDFFFFFFFFFFFFF
:1051E000FFFFFFFFFFFFFFFFFFFC3FFFFFFFFFFF92
:1051F000FFFFFFFFFFFFFFFFFFFE3FFFFFFFFFFF80
:10520000FFFFFFFFFFFFFFFFFFFE7FFFFFFFFFFF2F
:10521000FFFFFFFFFFFFFFFFFFFFFFFFFFFFFFFF9E
:10522000FFFFFFFFFFFFFFFFFFFFFFFFFFFFFFFF8E
:10523000FFFFFFFFFFFFFFFFFFFFFFFFFFFFFFFF7E
:10524000FFFFFFFFFFFFFFFFFFFFFFFFFFFFFFFF6E
:1054A000FFFF0000000000000000000000000000FE
:1054B00000000000000000000000000000000000EC
:1054C00000000000000000000000000000000000DC
:1054D00000000000000000000000000000000000CC
:1054E00000000000000000000000000000000000BC
:1056F00000000000000000000001E00C430000007A
:1057000000000000000000001804001E73000000EC
:1057100000000000000000000E04003DE600000054
:10572000000000000000000029AC00EF4C00000069
:1057300000000000000000002DADC0CC980000006B
:105740000000000000000000212C001834000000C0
:1057500000000000000000007FF800000C000000C6
:105760000000000000000000456980040C000000FB
:1057700000000000000000005D69C00C0C0000008B
:1057800000000000000000002F68000FF800080073
:1057900000000000000000003C28000FF800180086
:1057A00000000000000000003009800C08003800F4
:1057B00000000000000000000008C00C08003000DD
:1057C0000000000004000000000000080800300095
:1057D000000000000700000000000000080070004A
:1057E0000000000003C3E000000000000800780093
:1057F0000000000001C07C000080000000007FFF6E
:10580000FF00000780E01F000180000000007FFF14
:105810009F800007E0400F000300000000007FF0C1
:1058200000000000F000020007FC000000007F8084
:1058300000000000700018001C33800000007F0092
:105840000000000000003800312100000000FEC010
:105850000000000006003800212100000000FC705C
:1058600000000000CE187000032100000000FC18AA
:1058700000000001CE386000022300000000FC0C94
:1058800000000001CE78E000022300000000FC07C9
:10589000000000039E78E0000103000000007C0788
:1058A000800000039E78E0000103800000007C037C
:1058B000800000039FFDE00001FE000000003803AF
:1058C000C00000039FFFE000018000000000000115
:1058D000800000039FFFE0000000000000000000C7
:1058E00000000003BFFFE000000000000000000017
:1058F00000000003BEF9E00000000000000000000E
:1059000000000003BEF8E0000000000000000000FE
:10591000000000019EF8E000000000000000000010
:10592000000000001E70F0000000000000000000F9
:10593000000000000C00F000000000200800000043
:10594000000000000000F0000000006018000000EF
:10595000000000000000F0000000006030000000C7
:105960000000000000006000000000606000000017
:105970000000000000000000000000418000000066
:1059800000000000000000000000004F00000000C8
:1059900000000000000000000000004FFF000000B9
:1059A00000000000000080000000007800000000FF
:1059B000000000000000F0000000005100000000A6
:1059C00000000000000038000000004080000000DF
:1059D0000000000000001C0000000040C0000000AB
:1059E000000000000301CC0000000040E0000000C7
:1059F000000000000703C00000000040700000002D
:105A0000000000006639E0000000000038000000DF
:105A100000000002EEFFE0000000000000000000B7
:105A200000000006FEFEF000000000000100000083
:105A300000000006FEFF70000000000001000000F2
:105A400000000006FEFF380000000000010000001A
:105A50000000000EFEFF18000000000083000000A0
:105A60000000000EECDA18000000001882000000B0
:105A70000000000EED920C00000000194200000032
:105A80000000000EFDB60C000000001164000000D4
:105A90000000000EFDFEEC00000001FF2C000000E5
:105AA0000000000EFFFE7400000001FF380000003F
:105AB0000000000EFEFE3E0000000033F800000073
:105AC00000000004FEFC060000000033CC000000D3
:105AD00000000000EE31E20000000033060000008C
:105AE00000000000CE007A00000000000700000067
:105AF0000000000004003A00000000000300000065
:105B00000000000000000200000000000300000090
:105B10000000000000000200000000000300000080
:105B2000000000000000070000000000010000006D
:105B3000000000000000070000000000010000005D
:105B4000000000000000060000000000300000001F
:105B500000000000000006000000000070000000CF
:105B600000000000000000000000000C60000000C9
:105B7000000000000000000000000008C400000059
:105B80000000000000000000000000EBFF0000002B
:105B90000000000000000000000000FF0000000006
:105BA00000000000000000000000001A00000000DB
:105BB00000000000000000000000000AC00000001B
:105BC0000000000000000000000000128000000043
:105BD000000000000000000000000036B0000000DF
:105BE0000000000000000000000001FCB000000008
:105BF0000000000000000000000001FC8200000026
:105C0000000000000000000000000027FF800000EE
:105C1000000000000000000000000027F000080065
:105C200000000000000000000000000480001800D8
:105C300000000000000000000000000480001800C8
:105C40000000000000000000000000048000380098
:105C5000000000000000000000000000000030FC18
:105C6000000000000000000000000000000031FF04
:105C7000E00000000000000000000000000033FF12
:105C8000F80000000000000000000000000073FFAA
:105C9000FC00000000000000000000000000738015
:105CA0003C000000000000000000000000007380C5
:105CB0003C0000000000000000000000000077FF32
:105CC000FC000000000000000000000000007FFF5A
:105CD000F8000000000000000000000000007F9BB2
:105CE000F800000000000000000000000000FF932A
:105CF0003800000000000000000000000000FFFF6E
:105D00007800000000000000000000000000F3FF29
:105D1000FC00000000000000000000000000F3FF95
:105D2000FC00000000000000000000000000F38004
:105D30003C00000000000000000000000000F30034
:105D40007C00000000000000000000000000F3C71D
:105D5000FC00000000000000000000000000F3FF55
:105D6000F800000000000000000000000000F1FE4C
:105D700000000000000000000800000000007000AB
:105D800000000000000000000C0000000000700097
:105D900000000000000000000D8000000000000076
:105DA000000000000000000008600000000000008B
:105DB00000000000000000000920000000000000BA
:105DC00000000000000000001A2000000000000099
:105DD00000000000000000001A2000000000000089
:105DE000000000000000000013E0000000000000C0
:105DF0000000000000000000130000000000000090
:105E000000000000000000001801C00000000000B9
:105E100000000000000000001FFF800000000000E4
:105E20000000000000000000100000000000000062
:105E30000000000000000000100000000000000052
:105E40000000000000000000100000000000000042
:105E50000000000000000000100000000000000032
:105E60000000000000000000000000000000000032
:105E70000000000000000000000000000000000022
:105E80000000000000000000000000000000000012
:105E90000000000000000000000000000000000002
:105EA00000000000000000000000000000000000F2
:105EB00000000000000000000000000000000000E2
:105EC00000000000000000000000000000000000D2
:105ED00000000000000000000000000000000000C2
:105EE00000000000000000000000000000000000B2
:105EF00000000000000000000000000000000000A2
:105F00000000000000000000000000000000000091
:105F10000000000000000000000000000000000081
:105F20000000000000000000000000000000000071
:105F30000000000000000000000000000000000061
:105F40000000000000000000000000000000000051
:105F50000000000000000000000000000000000041
:105F60000000000000000000000000000000000031
:105F7000000000000000000000000000000003001E
:105F8000000000000000000000000000000001C050
:105F9000000000000000000000000000000000E31E
:105FA000FC0000000000000000008000000180E014
:105FB0003C00000000000000000100000000E000C4
:105FC0001C00000000000000000300000000700042
:105FD0000000000000000000000C00000000300085
:105FE000000000000000000000F00000000007C0FA
:105FF00078000000000000000F30000000000FE0FB
:106000001C000000000000002C2C000000000F9F6E
:106010000C000000000000002CA4000000007DBF68
:10602000C4000000000000002CA4000000005BBFC2
:10603000E000000000000000492400000000DBB682
:10604000E000000000000000293C00000000DBFF31
:10605000E0000000000000002938C0000000D3FF6D
:10606000E0000000000000003900C0000000D3FF85
:10607000E000000000000000310180000000D3F6C5
:10608000F00000000000000000BE00000000D3FF90
:10609000F00000000000000000F000000000DB7FC6
:1060A000E000000000000000008000000000DD3F74
:1060B000C0000000000000000000000000001F0001
:1060C00070000000000000000000000000001E0042
:1060D00038000000000000000000000000001C006C
:1060E00008000000000000000000000000000000A8
:1060F00000000000000000000000000000000000A0
:10610000000000000000000000000000000000048B
:106110000000000000000000000000000000000C73
:106120000000000000000000000000000000001D52
:10613000C000000000000000000000000000001887
:10614000E00000000000000000000000000000303F
:10615000700000000000000000000000000000309F
:1061600000000000000000000000000000000C30F3
:1061700000000000000000000000000000001C7093
:1061800000000000000000000000000000001C7083
:1061900000000000000000000000000000003C7053
:1061A00000000000000000000000000000003C7043
:1061B000000000000000000000000000000038F8AF
:1061C000000000000000000000000000000038FC9B
:1061D000180000000000000000000000000078FF30
:1061E000F80000000000000000000000000078FF40
:1061F000F8000000000000000000000000007CFF2C
:10620000E0000000000000000006000000007CF834
:106210000000000000000000000C0000000078F802
:10622000000000000000000000300000000038F016
:10623000000000000000000027C00000000010F077
:1062400000000000000000003EFC0000000000F024
:106250000000000000000000248000000000006337
:10626000C00000000000000027FFC0000000000088
:10627000E0000000000000002C8000000000000092
:1062800000000000000000003CFC000000000000D6
:10629000000000000000000030C00000000000000E
:1062A00000000000000000000000000000000000EE
:1062B000000000000000000007E0000000000000F7
:1062C00000000000000000000000000000000000CE
:1062D00000000000000000000001000000000000BD
:1062E00000000000000000007FFFC0000000000070
:1062F000000000000000000000002000000000007E
:10630000000000000000000000000000000000008D
:10631000000000000000000000000000000000007D
:10632000000000000000000000000000000000006D
:10633000000000000000000000000000000000005D
:106720000000FFFFFFFFFFFFFFFFFFFFFFFFFFFF77
:10673000FFFFFFFFFFFFFFFFFFFFFFFFFFFFFFFF69
:10674000FFFFFFFFFFFFFFFFFFFFFFFFFFFFFFFF59
:10675000FFFFFFFFFFFFFFFFFFFFFFFFFFFFFFFF49
:10676000FFFFFFFFFFFFFFFFFFFFFFFFFFFFFFFF39
:10698000FFFFFFFFFFFFFFFFFFFFFFFFFFFFFF0115
:10699000FFFFFFFFFFFFFFFFFFFFFFFFFFFFFCDE2B
:1069A000FFFFFFFFFFFFFFFFFFFFFFFFFFFFFBBF3B
:1069B0007FFFFFFFFFFFFFFFFFFF1FFFFFFFFBBF8B
:1069C0007FFFFFFFFFFFFFFFFFFC1FFFFFFFFBBF7E
:1069D0007FFFFFFFFFFFFFFFFFF80FFFFFFFFDDE61
:1069E000FFFFFFFFFFFFFFFFFFF8000001FFFFE1D8
:1069F000FFFFFFFFFFFFFFFFFFF0000001FFFFFFB2
:106A0000FFFFFFFFFFFFFFFFFFF0000001FFFFFFA1
:106A1000FFFFFFFFFFFFFFFFFFE0000001FFFFFFA1
:106A2000FFFFFFFFFFFFFFFFFFE0000001FFFFFF91
:106A3000FFFFFFFFFFFFFFFFFFE0000001FFFFFF81
:106A4000FFFFFFFFFFFFFFFFFFE0000001FFFFFF71
