:020000040800F2
:100000000050002079140008A9100008B110000861
:10001000B9100008C1100008C91000080000000055
:10002000000000000000000000000000018C00083B
:10003000D110000800000000E18D0008298E0008A2
:10004000C1140008C1140008C1140008C11400083C
:10005000C1140008C1140008C1140008C11400082C
:10006000C1140008C1140008C1140008C11400081C
:10007000C1140008C1140008C1140008C11400080C
:10008000C1140008C1140008C1140008C1140008FC
:10009000C1140008C1140008C1140008C1140008EC
:1000A000C1140008DD100008C1140008C1140008C4
:1000B000C1140008C1140008C1140008C1140008CC
:1000C000C1140008C1140008C1140008C1140008BC
:1000D000C1140008F110000805110008C11400083F
:1000E000C1140008C1140008C11400080000000079
:1000F0000000000000000000000000000000000000
:0C01000000000000000000005FF808F1A3
:1001100010B5054C237833B9044B13B10448AFF341
:1001200000800123237010BDE001002000000000CA
:10013000ECDB000808B5034B1BB103490348AFF3E0
:10014000008008BD00000000E4010020ECDB000896
:10015000034613F8012B002AFBD1181A0138704707
:1001600081F0004102E000BF83F0004330B54FEA68
:1001700041044FEA430594EA050F08BF90EA020FD5
:100180001FBF54EA000C55EA020C7FEA645C7FEA68
:10019000655C00F0E2804FEA5454D4EB5555B8BF8B
:1001A0006D420CDD2C4480EA020281EA030382EAFC
:1001B000000083EA010180EA020281EA0303362D8E
:1001C00088BF30BD11F0004F4FEA01314FF4801C61
:1001D0004CEA113102D0404261EB410113F0004F73
:1001E0004FEA03334CEA133302D0524263EB43032A
:1001F00094EA050F00F0A780A4F10104D5F1200EC8
:100200000DDB02FA0EFC22FA05F2801841F1000122
:1002100003FA0EF2801843FA05F359410EE0A5F1F6
:1002200020050EF1200E012A03FA0EFC28BF4CF027
:10023000020C43FA05F3C01851EBE37101F00045DD
:1002400007D54FF0000EDCF1000C7EEB00006EEBEA
:100250000101B1F5801F1BD3B1F5001F0CD3490874
:100260005FEA30004FEA3C0C04F101044FEA4452CB
:1002700012F5800F80F09A80BCF1004F08BF5FEA52
:10028000500C50F1000041EB045141EA050130BD32
:100290005FEA4C0C404141EB0101013C28BFB1F544
:1002A000801FE9D291F0000F04BF01460020B1FA8F
:1002B00081F308BF2033A3F10B03B3F120020CDA62
:1002C0000C3208DD02F1140CC2F10C0201FA0CF040
:1002D00021FA02F10CE002F11402D8BFC2F1200CA5
:1002E00001FA02F120FA0CFCDCBF41EA0C0190405B
:1002F000E41AA2BF01EB0451294330BD6FEA0404A4
:100300001F3C1CDA0C340EDC04F11404C4F120028E
:1003100020FA04F001FA02F340EA030021FA04F3A0
:1003200045EA030130BDC4F10C04C4F1200220FAF7
:1003300002F001FA04F340EA0300294630BD21FA35
:1003400004F0294630BD94F0000F83F4801306BFFB
:1003500081F480110134013D4EE77FEA645C18BFEF
:100360007FEA655C29D094EA050F08BF90EA020F86
:1003700005D054EA000C04BF1946104630BD91EA7E
:10038000030F1EBF0021002030BD5FEA545C05D181
:100390004000494128BF41F0004130BD14F58004C0
:1003A0003CBF01F5801130BD01F0004545F0FE4134
:1003B00041F470014FF0000030BD7FEA645C1ABF69
:1003C000194610467FEA655C1CBF0B46024650EAA0
:1003D000013406BF52EA033591EA030F41F40021CC
:1003E00030BD00BF90F0000F04BF0021704730B552
:1003F0004FF4806404F132044FF000054FF0000127
:1004000050E700BF90F0000F04BF0021704730B5E7
:100410004FF4806404F1320410F0004548BF4042BC
:100420004FF000013EE700BF42004FEAE2014FEA11
:1004300031014FEA02701FBF12F07F4393F07F4FEC
:1004400081F06051704732F07F4208BF704793F0EF
:100450007F4F04BF41F40021704730B54FF4607402
:1004600001F0004521F000411CE700BF50EA010205
:1004700008BF704730B54FF000050AE050EA0102AE
:1004800008BF704730B511F0004502D5404261EB1E
:1004900041014FF4806404F132045FEA915C3FF45F
:1004A000D8AE4FF003025FEADC0C18BF03325FEAFC
:1004B000DC0C18BF033202EBDC02C2F1200300FAAD
:1004C00003FC20FA02F001FA03FE40EA0E0021FAD2
:1004D00002F11444BDE600BF70B54FF0FF0C4CF4C0
:1004E000E06C1CEA11541DBF1CEA135594EA0C0F72
:1004F00095EA0C0F00F0DEF82C4481EA030621EAAD
:100500004C5123EA4C5350EA013518BF52EA0335E7
:1005100041F4801143F4801338D0A0FB02CE4FF099
:100520000005E1FB02E506F00042E0FB03E54FF0C9
:100530000006E1FB03569CF0000F18BF4EF0010EC1
:10054000A4F1FF04B6F5007F64F5407404D25FEABD
:100550004E0E6D4146EB060642EAC62141EA555170
:100560004FEAC52040EA5E504FEACE2EB4F1FD0CB2
:1005700088BFBCF5E06F1ED8BEF1004F08BF5FEA30
:10058000500E50F1000041EB045170BD06F00046E2
:1005900046EA010140EA020081EA0301B4EB5C048F
:1005A000C2BFD4EB0C0541EA045170BD41F4801187
:1005B0004FF0000E013C00F3AB8014F1360FDEBFAC
:1005C000002001F0004170BDC4F10004203C35DA88
:1005D0000C341BDC04F11404C4F1200500FA05F30B
:1005E00020FA04F001FA05F240EA020001F00042AC
:1005F00021F0004110EBD37021FA04F642EB060122
:100600005EEA430E08BF20EAD37070BDC4F10C044B
:10061000C4F1200500FA04F320FA05F001FA04F20F
:1006200040EA020001F0004110EBD37041F10001FB
:100630005EEA430E08BF20EAD37070BDC4F1200506
:1006400000FA05F24EEA020E20FA04F301FA05F26E
:1006500043EA020321FA04F001F0004121FA04F216
:1006600020EA020000EBD3705EEA430E08BF20EAE6
:10067000D37070BD94F0000F0FD101F00046400020
:1006800041EB010111F4801F08BF013CF7D041EAA2
:10069000060195F0000F18BF704703F000465200A6
:1006A00043EB030313F4801F08BF013DF7D043EA77
:1006B0000603704794EA0C0F0CEA135518BF95EA2D
:1006C0000C0F0CD050EA410618BF52EA4306D1D1B4
:1006D00081EA030101F000414FF0000070BD50EAD3
:1006E000410606BF1046194652EA430619D094EA5D
:1006F0000C0F02D150EA013613D195EA0C0F05D147
:1007000052EA03361CBF104619460AD181EA03019A
:1007100001F0004141F0FE4141F470014FF0000052
:1007200070BD41F0FE4141F4780170BD70B54FF0ED
:10073000FF0C4CF4E06C1CEA11541DBF1CEA13556D
:1007400094EA0C0F95EA0C0F00F0A7F8A4EB05044F
:1007500081EA030E52EA03354FEA013100F0888046
:100760004FEA03334FF0805545EA131343EA12630F
:100770004FEA022245EA111545EA10654FEA0026C4
:100780000EF000419D4208BF964244F1FD0404F57D
:10079000407402D25B084FEA3202B61A65EB0305D9
:1007A0005B084FEA32024FF480104FF4002CB6EB96
:1007B000020E75EB030E22BFB61A754640EA0C0016
:1007C0005B084FEA3202B6EB020E75EB030E22BF56
:1007D000B61A754640EA5C005B084FEA3202B6EB97
:1007E000020E75EB030E22BFB61A754640EA9C0056
:1007F0005B084FEA3202B6EB020E75EB030E22BF26
:10080000B61A754640EADC0055EA060E18D04FEAE3
:10081000051545EA16754FEA06164FEAC30343EA83
:1008200052734FEAC2025FEA1C1CC0D111F4801F50
:100830000BD141EA00014FF000004FF0004CB6E749
:1008400011F4801F04BF01430020B4F1FD0C88BFE8
:10085000BCF5E06F3FF6AFAEB5EB030C04BFB6EBF3
:10086000020C5FEA500C50F1000041EB045170BDE6
:100870000EF0004E4EEA113114EB5C04C2BFD4EB13
:100880000C0541EA045170BD41F480114FF0000E97
:10089000013C90E645EA060E8DE60CEA135594EA13
:1008A0000C0F08BF95EA0C0F3FF43BAF94EA0C0F16
:1008B0000AD150EA01347FF434AF95EA0C0F7FF48B
:1008C00025AF104619462CE795EA0C0F06D152EADF
:1008D00003353FF4FDAE1046194622E750EA4106C3
:1008E00018BF52EA43067FF4C5AE50EA41047FF4D4
:1008F0000DAF52EA43057FF4EBAE12E74FF0FF3C39
:1009000006E000BF4FF0010C02E000BF4FF0010C09
:100910004DF804CD4FEA410C7FEA6C5C4FEA430C82
:1009200018BF7FEA6C5C1BD001B050EA410C0CBFD1
:1009300052EA430C91EA030F02BF90EA020F002033
:10094000704710F1000F91EA030F58BF994208BF9A
:1009500090422CBFD8176FEAE37040F00100704757
:100960004FEA410C7FEA6C5C02D150EA013C07D1AE
:100970004FEA430C7FEA6C5CD6D152EA033CD3D0F9
:100980005DF8040B704700BF8446104662468C46F3
:100990001946634600E000BF01B5FFF7B7FF002826
:1009A00048BF10F1000F01BD4DF808EDFFF7F4FF4F
:1009B0000CBF012000205DF808FB00BF4DF808EDDA
:1009C000FFF7EAFF34BF012000205DF808FB00BFFD
:1009D0004DF808EDFFF7E0FF94BF012000205DF81F
:1009E00008FB00BF4DF808EDFFF7CEFF94BF0120D4
:1009F00000205DF808FB00BF4DF808EDFFF7C4FFCD
:100A000034BF012000205DF808FB00BF4FEA410C15
:100A10007FEA6C5C02D150EA013C0AD14FEA430CF8
:100A20007FEA6C5C02D152EA033C02D14FF0000035
:100A300070474FF0010070474FEA410212F5001273
:100A400015D211D56FF47873B3EB625212D94FEA15
:100A5000C12343F0004343EA505311F0004F23FAFF
:100A600002F018BF404270474FF00000704750EA54
:100A7000013005D111F0004008BF6FF00040704711
:100A80004FF00000704700BF4A0011D212F500126B
:100A900011D20DD56FF47873B3EB62520ED44FEAD6
:100AA000C12343F0004343EA505323FA02F0704756
:100AB0004FF00000704750EA013002D14FF0FF3094
:100AC00070474FF0000070474FEA4102B2F1E04337
:100AD00024BFB3F5001CDCF1FE5C0DD901F0004C25
:100AE0004FEAC0024CEA5070B2F1004F40EB830075
:100AF00008BF20F00100704711F0804F21D113F1A1
:100B00003872BCBF01F00040704741F480114FEAD9
:100B10005252C2F11802C2F1200C10FA0CF320FA62
:100B200002F018BF40F001004FEAC1234FEAD3237F
:100B300003FA0CFC40EA0C0023FA02F34FEA4303E9
:100B4000CCE77FEA625307D150EA01331EBF4FF072
:100B5000FE4040F44000704701F0004040F0FE408D
:100B600040F40000704700BF38B50022002304465F
:100B70000D46FFF723FF28B920462946BDE8384037
:100B800000F00AB8204605F1004100F005F84042A7
:100B900061EB410138BD00BFD0B500220B4B0646CA
:100BA0000F46FFF799FCFFF76FFF0446FFF71AFCAB
:100BB0000022074BFFF790FC02460B4630463946B1
:100BC000FFF7D2FAFFF760FF2146D0BD0000F03DED
:100BD0000000F04180B500AF234A0121012004F05C
:100BE000F1FD0346214A1360214A0121012004F04E
:100BF000E9FD03461F4A13601F4B002201211F48D5
:100C000004F03EFC03461E4A13601E4A00211E48A3
:100C100004F014FB03461D4A13601D4A00211D48C1
:100C200004F00CFB03461C4A13601C4A00211C48BC
:100C300004F004FB03461B4A13601B4A00211B48B7
:100C400004F0FCFA03461A4A13601A4804F09CFCAC
:100C50000346194A1360194804F096FC0346184AE3
:100C6000136000BF80BD00BFE0DD0008100200205F
:100C7000F0DD000814020020D0DD0008FD0C0008A3
:100C80000C02002040DD0008C50C0008FC0100201B
:100C900064DD0008D30C00080002002088DD000895
:100CA000E10C000804020020ACDD0008EF0C000895
:100CB0000802002000DE00081802002010DE0008F4
:100CC0003C02002080B582B000AF786003F068FA83
:100CD000FCE780B582B000AF786003F02BFFFCE743
:100CE00080B582B000AF786003F0F2FAFCE780B51F
:100CF00082B000AF786003F071FAFCE780B483B093
:100D000000AF786000BF0C37BD4680BC7047000064
:100D100080B588B000AF07F1100300221A605A6056
:100D20009A60DA60454B9B69444A43F01003936133
:100D3000424B9B6903F01003FB60FB683F4B9B69D0
:100D40003E4A43F0200393613C4B9B6903F0200330
:100D5000BB60BB68394B9B69384A43F0040393611D
:100D6000364B9B6903F004037B607B68334B9B69C4
:100D7000324A43F008039361304B9B6903F0080348
:100D80003B603B6800224FF400512D4800F01DFFEE
:100D90000022F2212B4800F018FF002240F201311E
:100DA000294800F012FF4FF400533B6101237B619F
:100DB0000023BB610123FB6107F1100319462048A2
:100DC00000F068FDF2233B6101237B610023BB61DE
:100DD0000223FB6107F1100319461A4800F05AFD7F
:100DE00001233B6101237B610023BB610223FB6183
:100DF00007F110031946144800F04CFD02233B6133
:100E000000237B610223BB6107F1100319460E48E2
:100E100000F040FD4FF440733B6101237B610023F0
:100E2000BB610123FB6107F110031946064800F07E
:100E300031FD00BF2037BD4680BD00BF001002401D
:100E40000010014000080140000C014080B500AFD7
:100E500000F038FB00F00EF8FFF75AFF00F024FA1C
:100E600000F04CFA04F084F9FFF7B4FE04F0B2F994
:100E700000BFFDE780B590B000AF07F1180328224E
:100E80000021184609F024FB3B1D00221A605A601D
:100E90009A60DA601A610123BB614FF48033FB6111
:100EA00000233B620123BB6202237B634FF4803348
:100EB000BB634FF4E013FB6307F11803184600F01F
:100EC0009DFE0346002B01D000F03EF80F237B600F
:100ED0000223BB600023FB604FF480633B6100236F
:100EE0007B613B1D0221184601F00AF90346002BE5
:100EF00001D000F029F800BF4037BD4680BD00009A
:100F000080B582B000AF7860391D4FF6FF730122C3
:100F1000034801F04DFD7B6818460837BD4680BD8B
:100F2000AC02002080B582B000AF78607B681B689F
:100F3000044A934201D100F0DBFA00BF0837BD46F6
:100F400080BD00BF002C014080B400AF72B600BF6E
:100F500000BFFDE780B584B000AF184B9B69174A0E
:100F600043F001039361154B9B6903F00103BB60E0
:100F7000BB68124BDB69114A43F08053D3610F4BBE
:100F8000DB6903F080537B607B6800220F216FF0E8
:100F9000010000F0A2FB0A4B5B68FB60FB6823F0DA
:100FA000E063FB60FB6843F00073FB60044AFB688E
:100FB000536000BF1037BD4680BD00BF0010024027
:100FC0000000014080B58CB000AF78600023BB62A8
:100FD00000237B62002387F82F302E4B9B692D4A1C
:100FE00043F4006393612B4B9B6903F40063BB6084
:100FF000BB6807F10C0207F110031146184601F017
:10100000EFF901F0D9F9B862BB6A234AA2FB0323C6
:101010009B0C013B7B62214B214A1A601F4B40F223
:10102000E732DA601D4A7B6A53601C4B00221A616A
:101030001A4B00229A60194B00229A61174801F05E
:101040001DFA034687F82F3097F82F30002B1BD15D
:10105000124801F06BFA034687F82F3097F82F30CB
:10106000002B11D1192000F054FB7B680F2B08D8FE
:1010700000227968192000F030FB0A4A7B6813606F
:1010800002E0012387F82F3097F82F3018463037C9
:10109000BD4680BD0010024083DE1B43600200207D
:1010A000002C01400400002080B400AF00BFFDE729
:1010B00080B400AF00BFFDE780B400AF00BFFDE724
:1010C00080B400AF00BFFDE780B400AF00BFFDE714
:1010D00080B400AF00BFBD4680BC704780B500AF94
:1010E000024801F075FA00BF80BD00BF6002002019
:1010F00080B500AF024801F003FD00BF80BD00BF16
:10110000AC02002080B500AF024801F0F9FC00BF3E
:1011100080BD00BFF402002080B400AF0123184658
:10112000BD4680BC704780B582B000AF7860396042
:1011300009F076FA034616221A604FF0FF3318467C
:101140000837BD4680BD80B582B000AF78604FF0F3
:10115000FF317868FFF7E7FF00BFFDE780B586B095
:1011600000AFF860B9607A6000237B610AE0AFF3FA
:1011700000800146BB685A1CBA60CAB21A707B690B
:1011800001337B617A697B689A42F0DB7B681846A1
:101190001837BD4680BD80B586B000AFF860B96035
:1011A0007A6000237B6109E0BB685A1CBA601B7837
:1011B0001846FFF7A5FE7B6901337B617A697B687E
:1011C0009A42F1DB7B6818461837BD4680BD80B473
:1011D00083B000AF78604FF0FF3318460C37BD4640
:1011E00080BC704780B483B000AF786039603B68E2
:1011F0004FF400525A60002318460C37BD4680BC9D
:10120000704780B483B000AF7860012318460C3774
:10121000BD4680BC704780B485B000AFF860B9604F
:101220007A60002318461437BD4680BC7047000022
:1012300080B586B000AF7860144A154BD31A7B6135
:101240007B693B61134B1B68002B02D1114B124A87
:101250001A60104B1A687B6813443A699A4207D2A5
:1012600009F0DEF903460C221A604FF0FF3309E063
:10127000084B1B68FB60074B1A687B681344054AE0
:101280001360FB6818461837BD4680BD005000202B
:1012900000040000A8020020D81E002080B400AF87
:1012A00000BFBD4680BC704780B500AF114B124AED
:1012B0001A60104B4FF4E1325A600E4B00229A60D4
:1012C0000C4B0022DA600B4B00221A61094B0C22F6
:1012D0005A61084B00229A61064B0022DA610548E8
:1012E00001F016FB0346002B01D0FFF72DFE00BFD7
:1012F00080BD00BFAC0200200038014080B500AFC7
:10130000114B124A1A60104B4FF4E1325A600E4BE7
:1013100000229A600C4B0022DA600B4B00221A610B
:10132000094B0C225A61084B00229A61064B00229D
:10133000DA61054801F0ECFA0346002B01D0FFF713
:1013400003FE00BF80BD00BFF40200200044004047
:1013500080B58AB000AF786007F1180300221A60E8
:101360005A609A60DA607B681B683F4A93423AD1C0
:101370003E4B9B693D4A43F4804393613B4B9B69E1
:1013800003F480437B617B69384B9B69374A43F0A8
:1013900004039361354B9B6903F004033B613B6994
:1013A0004FF40073BB610223FB6103237B6207F1EF
:1013B000180319462E4800F06DFA4FF48063BB61A4
:1013C0000023FB6100233B6207F1180319462848FC
:1013D00000F060FA00220521252000F07EF925208A
:1013E00000F097F93CE07B681B68224A934237D1B2
:1013F0001E4BDB691D4A43F40033D3611B4BDB6991
:1014000003F40033FB60FB68184B9B69174A43F0F9
:1014100004039361154B9B6903F00403BB60BB6835
:101420000423BB610223FB6103237B6207F11803E2
:1014300019460F4800F02EFA0823BB610023FB6118
:1014400000233B6207F118031946094800F022FA0D
:1014500000220521262000F040F9262000F059F94D
:1014600000BF2837BD4680BD003801400010024053
:101470000008014000440040FFF710FF0B480C49F2
:101480000C4A002302E0D458C4500433C4188C42E0
:10149000F9D3094A094C002301E013600432A24247
:1014A000FBD309F0C3F8FFF7D1FC70470000002020
:1014B000E0010020480F0108E0010020D41E0020B8
:1014C000FEE7000080B500AF084B1B68074A43F0F9
:1014D00010031360032000F0F5F80F20FFF772FDF2
:1014E000FFF738FD0023184680BD00BF00200240F2
:1014F00080B400AF054B1B781A46054B1B6813449C
:10150000034A136000BFBD4680BC7047080000203E
:101510003C03002080B400AF024B1B681846BD4658
:1015200080BC70473C03002080B584B000AF786079
:10153000FFF7F0FFB8607B68FB60FB68B3F1FF3F2B
:1015400005D00A4B1B781A46FB681344FB6000BFAA
:10155000FFF7E0FF0246BB68D31AFA689A42F7D851
:1015600000BF00BF1037BD4680BD00BF080000208F
:1015700080B485B000AF78607B6803F00703FB6040
:101580000C4BDB68BB60BA684FF6FF031340BB60CF
:10159000FB681A02BB68134343F0BF6343F4003394
:1015A000BB60044ABB68D36000BF1437BD4680BC33
:1015B000704700BF00ED00E080B400AF044BDB6873
:1015C0001B0A03F007031846BD4680BC704700BFE6
:1015D00000ED00E080B483B000AF0346FB7197F9E3
:1015E0000730002B0BDBFB7903F01F02064997F94C
:1015F00007305B09012000FA02F241F8232000BF06
:101600000C37BD4680BC704700E100E080B483B079
:1016100000AF03463960FB7197F90730002B0ADBF6
:101620003B68DAB20C4997F907301201D2B20B4489
:1016300083F800230AE03B68DAB20849FB7903F03B
:101640000F03043B1201D2B20B441A7600BF0C37D1
:10165000BD4680BC704700BF00E100E000ED00E047
:1016600080B489B000AFF860B9607A60FB6803F0BD
:101670000703FB61FB69C3F10703042B28BF0423A5
:10168000BB61FB690433062B02D9FB69033B00E015
:1016900000237B614FF0FF32BB6902FA03F3DA43A8
:1016A000BB681A407B699A404FF0FF317B6901FAB1
:1016B00003F3D9437B680B40134318462437BD46D8
:1016C00080BC704780B582B000AF78607868FFF763
:1016D0004FFF00BF0837BD4680BD80B586B000AF64
:1016E0000346B9607A60FB7300237B61FFF764FFF8
:1016F00078617A68B9687869FFF7B2FF024697F9AE
:101700000F3011461846FFF781FF00BF1837BD465E
:1017100080BD80B582B000AF0346FB7197F90730FA
:101720001846FFF757FF00BF0837BD4680BD80B49D
:1017300085B000AF78600023FB737B6893F821309D
:10174000DBB2022B08D07B6804229A637B680022FC
:1017500083F82020012320E07B681B681A687B68DF
:101760001B6822F00E021A607B681B681A687B688F
:101770001B6822F001021A607B681A6C7B68DB6BC5
:10178000012101FA02F25A607B68012283F82120CC
:101790007B68002283F82020FB7B18461437BD4667
:1017A00080BC704780B584B000AF78600023FB73C5
:1017B0007B6893F82130DBB2022B05D07B680422D2
:1017C0009A630123FB7351E07B681B681A687B688E
:1017D0001B6822F00E021A607B681B681A687B681F
:1017E0001B6822F001021A607B681B68224A934240
:1017F00029D07B681B68214A934222D07B681B68F2
:101800001F4A93421AD07B681B681E4A934212D02B
:101810007B681B681C4A93420AD07B681B681B4A82
:10182000934202D14FF480130EE04FF080730BE02F
:101830004FF4803308E04FF4805305E04FF4807399
:1018400002E0102300E00123114A53607B6801226B
:1018500083F821207B68002283F820207B685B6B63
:10186000002B03D07B685B6B78689847FB7B18463E
:101870001037BD4680BD00BF080002401C0002407A
:101880003000024044000240580002406C00024018
:101890000000024080B48BB000AF78603960002354
:1018A0007B6200233B6269E101227B6A02FA03F357
:1018B000FB613B681B68FA691340BB61BA69FB694D
:1018C0009A4240F058813B685B689A4A93425ED0E6
:1018D000984A934275D8984A934258D0964A934270
:1018E0006FD8964A934252D0944A934269D8944A08
:1018F00093424CD0924A934263D8924A934246D044
:10190000904A93425DD8122B2AD8122B59D801A2A3
:1019100052F823F08F190008691900087B19000894
:10192000BD190008C3190008C3190008C31900082D
:10193000C3190008C3190008C3190008C319000817
:10194000C3190008C3190008C3190008C319000807
:10195000C3190008C3190008711900088519000887
:10196000794A934213D02CE03B68DB683B6229E064
:101970003B68DB6804333B6224E03B68DB68083388
:101980003B621FE03B68DB680C333B621AE03B685C
:101990009B68002B02D104233B6213E03B689B68E9
:1019A000012B05D108233B627B68FA691A6109E0C3
:1019B00008233B627B68FA695A6103E000233B62BB
:1019C00000E000BFBB69FF2B01D87B6801E07B68AA
:1019D00004337B61BB69FF2B02D87B6A9B0002E06A
:1019E0007B6A083B9B003B617B691A680F213B695E
:1019F00001FA03F3DB431A40396A3B6901FA03F346
:101A00001A437B691A603B685B6803F08053002BC4
:101A100000F0B1804D4B9B694C4A43F00103936148
:101A20004A4B9B6903F00103BB60BB68484A7B6A71
:101A30009B08023352F82330FB607B6A03F00303F8
:101A40009B000F2202FA03F3DB43FA681340FB60AA
:101A50007B68404A934213D07B683F4A93420DD043
:101A60007B683E4A934207D07B683D4A934201D14E
:101A7000032306E0042304E0022302E0012300E044
:101A800000237A6A02F0030292009340FA6813433B
:101A9000FB602F497B6A9B080233FA6841F82320D8
:101AA0003B685B6803F48013002B06D02D4B9A68CB
:101AB0002C49BB6913438B6006E02A4B9A68BB69CB
:101AC000DB43284913408B603B685B6803F40013D9
:101AD000002B06D0234BDA682249BB691343CB6045
:101AE00006E0204BDA68BB69DB431E491340CB603C
:101AF0003B685B6803F40033002B06D0194B5A682F
:101B00001849BB6913434B6006E0164B5A68BB6922
:101B1000DB43144913404B603B685B6803F480333C
:101B2000002B21D00F4B1A680E49BB6913430B6081
:101B300021E000BF00003210000031100000221030
:101B400000002110000012100000111000100240CF
:101B50000000014000080140000C0140001001405D
:101B600000140140000401400B4B1A68BB69DB43C1
:101B7000094913400B607B6A01337B623B681A683A
:101B80007B6A22FA03F3002B7FF48EAE00BF00BF06
:101B90002C37BD4680BC70470004014080B485B03E
:101BA00000AF78600B467B807B689A687B88134027
:101BB000002B02D00123FB7301E00023FB73FB7BAE
:101BC00018461437BD4680BC704780B483B000AF60
:101BD00078600B467B8013467B707B78002B03D0AC
:101BE0007A887B681A6103E07B881A047B681A6133
:101BF00000BF0C37BD4680BC7047000080B586B082
:101C000000AF78607B68002B01D1012372E27B6812
:101C10001B6803F00103002B00F08780924B5B6888
:101C200003F00C03042B0CD08F4B5B6803F00C0308
:101C3000082B12D18C4B5B6803F48033B3F5803FE3
:101C40000BD1894B1B6803F40033002B6CD07B68ED
:101C50005B68002B68D101234CE27B685B68B3F5BD
:101C6000803F06D1804B1B687F4A43F4803313606A
:101C70002EE07B685B68002B0CD17B4B1B687A4A9B
:101C800023F480331360784B1B68774A23F4802356
:101C900013601DE07B685B68B3F5A02F0CD1724B1D
:101CA0001B68714A43F4802313606F4B1B686E4AB4
:101CB00043F4803313600BE06B4B1B686A4A23F4D8
:101CC00080331360684B1B68674A23F480231360DA
:101CD0007B685B68002B13D0FFF71CFC386108E0C1
:101CE000FFF718FC02463B69D31A642B01D9032382
:101CF00000E25D4B1B6803F40033002BF0D014E0CE
:101D0000FFF708FC386108E0FFF704FC02463B6976
:101D1000D31A642B01D90323ECE1534B1B6803F462
:101D20000033002BF0D100E000BF7B681B6803F09C
:101D30000203002B63D04C4B5B6803F00C03002BB9
:101D40000BD0494B5B6803F00C03082B1CD1464BAE
:101D50005B6803F48033002B16D1434B1B6803F000
:101D60000203002B05D07B681B69012B01D00123E6
:101D7000C0E13D4B1B6823F0F8027B685B69DB0028
:101D8000394913430B603AE07B681B69002B20D074
:101D9000364B01221A60FFF7BDFB386108E0FFF700
:101DA000B9FB02463B69D31A022B01D90323A1E1F7
:101DB0002D4B1B6803F00203002BF0D02A4B1B684D
:101DC00023F0F8027B685B69DB00274913430B6053
:101DD00015E0264B00221A60FFF79CFB386108E0F3
:101DE000FFF798FB02463B69D31A022B01D9032364
:101DF00080E11D4B1B6803F00203002BF0D17B68D0
:101E00001B6803F00803002B3AD07B689B69002B0A
:101E100019D0174B01221A60FFF77CFB386108E0EC
:101E2000FFF778FB02463B69D31A022B01D9032343
:101E300060E10D4B5B6A03F00203002BF0D0012040
:101E400000F0FEFA1CE00A4B00221A60FFF762FB6A
:101E500038610FE0FFF75EFB02463B69D31A022BA5
:101E600008D9032346E100BF0010024000004242AF
:101E700080044242924B5B6A03F00203002BE9D1DB
:101E80007B681B6803F00403002B00F0A68000238E
:101E9000FB758B4BDB6903F08053002B0DD1884B16
:101EA000DB69874A43F08053D361854BDB6903F0DC
:101EB0008053BB60BB680123FB75824B1B6803F436
:101EC0008073002B18D17F4B1B687E4A43F48073CC
:101ED0001360FFF71FFB386108E0FFF71BFB0246AA
:101EE0003B69D31A642B01D9032303E1754B1B68AB
:101EF00003F48073002BF0D07B68DB68012B06D1E4
:101F00006F4B1B6A6E4A43F0010313622DE07B683E
:101F1000DB68002B0CD16A4B1B6A694A23F0010372
:101F20001362674B1B6A664A23F0040313621CE0CA
:101F30007B68DB68052B0CD1614B1B6A604A43F060
:101F4000040313625E4B1B6A5D4A43F00103136294
:101F50000BE05B4B1B6A5A4A23F001031362584B98
:101F60001B6A574A23F0040313627B68DB68002B6B
:101F700015D0FFF7CFFA38610AE0FFF7CBFA024637
:101F80003B69D31A41F28832934201D90323B1E06D
:101F90004B4B1B6A03F00203002BEED014E0FFF75B
:101FA000B9FA38610AE0FFF7B5FA02463B69D31A7D
:101FB00041F28832934201D903239BE0404B1B6AD4
:101FC00003F00203002BEED1FB7D012B05D13C4B2E
:101FD000DB693B4A23F08053D3617B68DB69002BCC
:101FE00000F08780364B5B6803F00C03082B61D050
:101FF0007B68DB69022B46D1334B00221A60FFF766
:1020000089FA386108E0FFF785FA02463B69D31A7E
:10201000022B01D903236DE0294B1B6803F00073E9
:10202000002BF0D17B681B6AB3F5803F08D1244BAD
:102030005B6823F400327B689B68214913434B6043
:102040001F4B5B6823F474127B68196A7B685B6AB8
:102050000B431B4913434B601B4B01221A60FFF7D4
:1020600059FA386108E0FFF755FA02463B69D31A7E
:10207000022B01D903233DE0114B1B6803F00073D1
:10208000002BF0D035E0104B00221A60FFF742FA27
:10209000386108E0FFF73EFA02463B69D31A022B8B
:1020A00001D9032326E0064B1B6803F00073002BC5
:1020B000F0D11EE07B68DB69012B07D1012319E019
:1020C0000010024000700040600042420B4B5B6811
:1020D000FB60FB6803F480327B681B6A9A4206D17E
:1020E000FB6803F470127B685B6A9A4201D001239B
:1020F00000E0002318461837BD4680BD001002409E
:1021000080B584B000AF786039607B68002B01D166
:102110000123D0E06A4B1B6803F007033A689A4238
:1021200010D9674B1B6823F0070265493B681343CE
:102130000B60634B1B6803F007033A689A4201D0B7
:102140000123B8E07B681B6803F00203002B20D05A
:102150007B681B6803F00403002B05D0594B5B68B8
:10216000584A43F4E06353607B681B6803F008033C
:10217000002B05D0534B5B68524A43F460535360C5
:10218000504B5B6823F0F0027B689B684D4913431A
:102190004B607B681B6803F00103002B40D07B6819
:1021A0005B68012B07D1474B1B6803F40033002BFE
:1021B00015D101237FE07B685B68022B07D1414B7F
:1021C0001B6803F00073002B09D1012373E03D4B22
:1021D0001B6803F00203002B01D101236BE0394B94
:1021E0005B6823F003027B685B68364913434B60EE
:1021F000FFF790F9F8600AE0FFF78CF90246FB68F8
:10220000D31A41F28832934201D9032353E02D4B74
:102210005B6803F00C027B685B689B009A42EBD121
:10222000274B1B6803F007033A689A4210D2244BED
:102230001B6823F0070222493B6813430B60204BC5
:102240001B6803F007033A689A4201D0012332E089
:102250007B681B6803F00403002B08D0194B5B68F4
:1022600023F4E0627B68DB68164913434B607B68AC
:102270001B6803F00803002B09D0124B5B6823F4A2
:1022800060527B681B69DB000E4913434B6000F012
:1022900021F802460B4B5B681B0903F00F030A4948
:1022A000CB5C22FA03F3094A1360094B1B681846FA
:1022B000FEF788FE002318461037BD4680BD00BFDC
:1022C000002002400010024020DE00080000002034
:1022D0000400002080B487B000AF0023FB6000231F
:1022E000BB6000237B6100237B6000233B611E4BAE
:1022F0005B68FB60FB6803F00C03042B02D0082B27
:1023000003D027E0194B3B6127E0FB689B0C03F0EF
:102310000F03174AD35C7B60FB6803F48033002B08
:1023200010D0114B5B685B0C03F00103114AD35CC6
:10233000BB607B680D4A03FB02F2BB68B2FBF3F3A0
:102340007B6104E07B680C4A02FB03F37B617B69E1
:102350003B6102E0054B3B6100BF3B6918461C37FF
:10236000BD4680BC704700BF0010024000127A00DA
:1023700038DE000848DE000800093D0080B400AFE8
:10238000024B1B681846BD4680BC70470000002009
:1023900080B500AFFFF7F2FF0246054B5B681B0AF2
:1023A00003F007030349CB5C22FA03F3184680BD10
:1023B0000010024030DE000880B500AFFFF7DEFFFE
:1023C0000246054B5B68DB0A03F007030349CB5C5D
:1023D00022FA03F3184680BD0010024030DE0008E8
:1023E00080B483B000AF786039607B680F221A60D8
:1023F000114B5B6803F003027B685A600E4B5B680D
:1024000003F0F0027B689A600B4B5B6803F4E062B8
:102410007B68DA60084B5B68DB0803F4E0627B688A
:102420001A61064B1B6803F007023B681A6000BF85
:102430000C37BD4680BC70470010024000200240AF
:1024400080B485B000AF78600A4B1B680A4AA2FBD3
:1024500003235B0A7A6802FB03F3FB6000BFFB689F
:102460005A1EFA60002BF9D100BF00BF1437BD46D9
:1024700080BC704700000020D34D621080B582B050
:1024800000AF78607B68002B01D1012341E07B68BD
:1024900093F83D30DBB2002B06D17B68002283F835
:1024A0003C20786800F039F87B68022283F83D20F0
:1024B0007B681A687B6804331946104600F0B4F94B
:1024C0007B68012283F846207B68012283F83E2046
:1024D0007B68012283F83F207B68012283F840203B
:1024E0007B68012283F841207B68012283F8422027
:1024F0007B68012283F843207B68012283F8442013
:102500007B68012283F845207B68012283F83D2007
:10251000002318460837BD4680BD80B483B000AFA5
:10252000786000BF0C37BD4680BC704780B485B072
:1025300000AF78607B6893F83D30DBB2012B01D0AF
:1025400001233AE07B68022283F83D207B681B6808
:10255000DA687B681B6842F00102DA607B681B68FE
:10256000184A93420ED07B681B68B3F1804F09D0A4
:102570007B681B68144A934204D07B681B68134A2B
:10258000934211D17B681B689B6803F00703FB60D3
:10259000FB68062B10D07B681B681A687B681B6879
:1025A00042F001021A6007E07B681B681A687B68CA
:1025B0001B6842F001021A60002318461437BD461A
:1025C00080BC7047002C014000040040000800401F
:1025D00080B582B000AF78607B681B681B6903F030
:1025E0000203022B22D17B681B68DB6803F0020325
:1025F000022B1BD17B681B686FF002021A617B689B
:1026000001221A777B681B689B6903F00303002B88
:1026100003D0786800F0EDF805E0786800F0E0F8A5
:10262000786800F0EFF87B6800221A777B681B68F7
:102630001B6903F00403042B22D17B681B68DB6851
:1026400003F00403042B1BD17B681B686FF00402AA
:102650001A617B6802221A777B681B689B6903F406
:102660004073002B03D0786800F0C3F805E0786869
:1026700000F0B6F8786800F0C5F87B6800221A7799
:102680007B681B681B6903F00803082B22D17B6859
:102690001B68DB6803F00803082B1BD17B681B68F1
:1026A0006FF008021A617B6804221A777B681B6846
:1026B000DB6903F00303002B03D0786800F099F87E
:1026C00005E0786800F08CF8786800F09BF87B688B
:1026D00000221A777B681B681B6903F01003102B1C
:1026E00022D17B681B68DB6803F01003102B1BD121
:1026F0007B681B686FF010021A617B6808221A77EA
:102700007B681B68DB6903F44073002B03D0786897
:1027100000F06FF805E0786800F062F8786800F083
:1027200071F87B6800221A777B681B681B6903F0CD
:102730000103012B0ED17B681B68DB6803F00103EA
:10274000012B07D17B681B686FF001021A61786862
:10275000FEF7E8FB7B681B681B6903F08003802B96
:102760000ED17B681B68DB6803F08003802B07D1E8
:102770007B681B686FF080021A61786800F0BFF810
:102780007B681B681B6903F04003402B0ED17B68FC
:102790001B68DB6803F04003402B07D17B681B6894
:1027A0006FF040021A61786800F035F87B681B68AA
:1027B0001B6903F02003202B0ED17B681B68DB68AC
:1027C00003F02003202B07D17B681B686FF02002E9
:1027D0001A61786800F08AF800BF0837BD4680BDEE
:1027E00080B483B000AF786000BF0C37BD4680BCBA
:1027F000704780B483B000AF786000BF0C37BD462F
:1028000080BC704780B483B000AF786000BF0C37E5
:10281000BD4680BC704780B483B000AF786000BF15
:102820000C37BD4680BC704780B485B000AF78607F
:1028300039607B681B68FB607B68294A93420BD038
:102840007B68B3F1804F07D07B68264A934203D060
:102850007B68254A934208D1FB6823F07003FB6034
:102860003B685B68FA681343FB607B681C4A9342D1
:102870000BD07B68B3F1804F07D07B68194A934235
:1028800003D07B68184A934208D1FB6823F4407355
:10289000FB603B68DB68FA681343FB60FB6823F06E
:1028A00080023B685B691343FB607B68FA681A60CF
:1028B0003B689A687B68DA623B681A687B689A6250
:1028C0007B68074A934203D13B681A697B681A63A5
:1028D0007B6801225A6100BF1437BD4680BC704737
:1028E000002C0140000400400008004080B483B088
:1028F00000AF786000BF0C37BD4680BC704780B425
:1029000083B000AF786000BF0C37BD4680BC704715
:1029100080B582B000AF78607B68002B01D10123C5
:1029200042E07B6893F84130DBB2002B06D17B6834
:10293000002283F840207868FEF70AFD7B68242295
:1029400083F841207B681B68DA687B681B6822F487
:102950000052DA60786800F0C5FD7B681B681A6970
:102960007B681B6822F490421A617B681B685A6975
:102970007B681B6822F02A025A617B681B68DA6850
:102980007B681B6842F40052DA607B6800225A645C
:102990007B68202283F841207B68202283F8422034
:1029A0007B6800225A63002318460837BD4680BD65
:1029B00080B58AB002AFF860B9603B601346FB8017
:1029C00000237B61FB6893F84130DBB2202B6DD193
:1029D000BB68002B02D0FB88002B01D1012366E0ED
:1029E000FB6800225A64FB68212283F84120FEF72D
:1029F00091FD7861FB68FA889A84FB68FA88DA842A
:102A0000FB689B68B3F5805F08D1FB681B69002BEE
:102A100004D10023FB61BB68BB6103E0BB68FB61C1
:102A20000023BB612AE03B6800937B690022802180
:102A3000F86800F014FB0346002B01D0032336E0B6
:102A4000FB69002B0BD1BB691B881A46FB681B680E
:102A5000C2F308025A60BB690233BB6107E0FB693D
:102A60001A78FB681B685A60FB690133FB61FB68DD
:102A7000DB8C9BB2013B9AB2FB68DA84FB68DB8C8F
:102A80009BB2002BCFD13B6800937B690022402191
:102A9000F86800F0E4FA0346002B01D0032306E0B7
:102AA000FB68202283F84120002300E0022318461F
:102AB0002037BD4680BD80B584B000AFF860B960F6
:102AC0001346FB80FB6893F84230DBB2202B12D117
:102AD000BB68002B02D0FB88002B01D101230BE047
:102AE000FB6800221A63FB881A46B968F86800F090
:102AF00024FB034600E0022318461037BD4680BD84
:102B000080B5BAB000AF78607B681B681B68C7F8F7
:102B1000E4307B681B68DB68C7F8E0307B681B68C3
:102B20005B69C7F8DC300023C7F8D8300023C7F84A
:102B3000D430D7F8E43003F00F03C7F8D830D7F813
:102B4000D830002B0FD1D7F8E43003F02003002B4E
:102B500009D0D7F8E03003F02003002B03D07868C9
:102B600000F001FC5BE2D7F8D830002B00F0DE80EB
:102B7000D7F8DC3003F00103002B06D1D7F8E030A2
:102B800003F49073002B00F0D180D7F8E43003F009
:102B90000103002B0BD0D7F8E03003F48073002B37
:102BA00005D07B685B6C43F001027B685A64D7F800
:102BB000E43003F00403002B0BD0D7F8DC3003F033
:102BC0000103002B05D07B685B6C43F002027B683D
:102BD0005A64D7F8E43003F00203002B0BD0D7F887
:102BE000DC3003F00103002B05D07B685B6C43F005
:102BF00004027B685A64D7F8E43003F00803002B22
:102C000011D0D7F8E03003F02003002B05D1D7F81E
:102C1000DC3003F00103002B05D07B685B6C43F0D4
:102C200008027B685A647B685B6C002B00F0F281C1
:102C3000D7F8E43003F02003002B08D0D7F8E030B9
:102C400003F02003002B02D0786800F08CFB7B6837
:102C50001B685B6903F04003002B14BF01230023B2
:102C6000DBB2C7F8D4307B685B6C03F00803002B41
:102C700003D1D7F8D430002B4FD0786800F096FA03
:102C80007B681B685B6903F04003002B41D07B68C5
:102C90001B681433C7F89C30D7F89C3053E8003FCA
:102CA000C7F89830D7F8983023F04003C7F8D030F1
:102CB0007B681B681433D7F8D020C7F8A820C7F862
:102CC000A430D7F8A410D7F8A82041E80023C7F80B
:102CD000A030D7F8A030002BD9D17B68DB6B002B5C
:102CE00013D07B68DB6B7E4A5A637B68DB6B1846CC
:102CF000FEF758FD0346002B16D07B68DB6B5B6B41
:102D00007A68D26B104698470EE0786800F093F925
:102D10000AE0786800F08FF906E0786800F08BF937
:102D20007B6800225A6475E100BF73E17B681B6B0E
:102D3000012B40F04F81D7F8E43003F01003002B53
:102D400000F04881D7F8E03003F01003002B00F0CA
:102D500041810023BB607B681B681B68BB607B688C
:102D60001B685B68BB60BB687B681B685B6903F0C2
:102D70004003002B00F0B6807B68DB6B1B685B6850
:102D8000A7F8BE30B7F8BE30002B00F045817B6855
:102D90009B8DB7F8BE209A4280F03E817B68B7F8E1
:102DA000BE20DA857B68DB6B9B69202B00F0888076
:102DB0007B681B680C33C7F88830D7F8883053E835
:102DC000003FC7F88430D7F8843023F48073C7F805
:102DD000B8307B681B680C33D7F8B820C7F894204C
:102DE000C7F89030D7F89010D7F8942041E8002326
:102DF000C7F88C30D7F88C30002BD9D17B681B6892
:102E000014337B677B6F53E8003F3B673B6F23F0D6
:102E10000103C7F8B4307B681B681433D7F8B420BB
:102E2000C7F88020FB67F96FD7F8802041E80023BE
:102E3000BB67BB6F002BE1D17B681B6814333B661B
:102E40003B6E53E8003FFB65FB6D23F04003C7F882
:102E5000B0307B681B681433D7F8B020FA66BB66C5
:102E6000B96EFA6E41E800237B667B6E002BE3D1DE
:102E70007B68202283F842207B6800221A637B68EB
:102E80001B680C33FB64FB6C53E8003FBB64BB6CFA
:102E900023F01003C7F8AC307B681B680C33D7F8FD
:102EA000AC20BA657B65796DBA6D41E800233B655E
:102EB0003B6D002BE3D17B68DB6B1846FEF737FCDC
:102EC0007B6802225A637B689A8D7B68DB8D9BB29C
:102ED000D31A9BB21946786800F0B6F89CE000BFA0
:102EE000713200087B689A8D7B68DB8D9BB2D31AA8
:102EF000A7F8CE307B68DB8D9BB2002B00F08E8074
:102F0000B7F8CE30002B00F089807B681B680C334B
:102F1000BB63BB6B53E8003F7B637B6B23F4907315
:102F2000C7F8C8307B681B680C33D7F8C8207A64B0
:102F30003B64396C7A6C41E80023FB63FB6B002B2C
:102F4000E3D17B681B6814337B627B6A53E8003FE4
:102F50003B623B6A23F00103C7F8C4307B681B68FF
:102F60001433D7F8C4203A63FB62F96A3A6B41E83C
:102F70000023BB62BB6A002BE3D17B68202283F86D
:102F800042207B6800221A637B681B680C333B611C
:102F90003B6953E8003FFB60FB6823F01003C7F870
:102FA000C0307B681B680C33D7F8C020FA61BB6166
:102FB000B969FA6941E800237B617B69002BE3D1A1
:102FC0007B6802225A63B7F8CE301946786800F061
:102FD0003BF823E0D7F8E43003F08003002B09D05E
:102FE000D7F8E03003F08003002B03D0786800F0BE
:102FF00053F914E0D7F8E43003F04003002B0ED06F
:10300000D7F8E03003F04003002B08D0786800F0D8
:1030100092F904E000BF02E000BF00E000BFE83723
:10302000BD4680BD80B483B000AF786000BF0C3770
:10303000BD4680BC704780B483B000AF786000BFED
:103040000C37BD4680BC704780B483B000AF786059
:103050000B467B8000BF0C37BD4680BC704780B5F7
:1030600090B000AFF860B9603B601346FB7150E070
:10307000BB6CB3F1FF3F4CD0BB6C002B07D0FEF70D
:1030800049FA02463B68D31ABA6C9A4241D2FB68AD
:103090001B680C33BB62BB6A53E8003F7B627B6AF0
:1030A00023F4D073FB63FB681B680C33FA6B7A6301
:1030B0003B63396B7A6B41E80023FB62FB6A002BB0
:1030C000E5D1FB681B6814337B617B6953E8003FE3
:1030D0003B613B6923F00103BB63FB681B6814334E
:1030E000BA6B3A62FB61F9693A6A41E80023BB6155
:1030F000BB69002BE5D1FB68202283F84120FB68E7
:10310000202283F84220FB68002283F8402003231A
:103110000FE0FB681B681A68BB681340BA689A42E4
:103120000CBF01230023DBB21A46FB799A429FD0E1
:10313000002318464037BD4680BD80B485B000AF3F
:10314000F860B9601346FB80FB68BA689A62FB6856
:10315000FA889A85FB68FA88DA85FB6800225A6447
:10316000FB68222283F84220FB681B69002B07D0F2
:10317000FB681B68DA68FB681B6842F48072DA60DF
:10318000FB681B685A69FB681B6842F001025A61C0
:10319000FB681B68DA68FB681B6842F02002DA6093
:1031A000002318461437BD4680BC704780B495B0E4
:1031B00000AF78607B681B680C337B637B6B53E8E4
:1031C000003F3B633B6B23F49073FB647B681B689D
:1031D0000C33FA6C3A64FB63F96B3A6C41E80023F8
:1031E000BB63BB6B002BE5D17B681B6814333B6270
:1031F0003B6A53E8003FFB61FB6923F00103BB64BA
:103200007B681B681433BA6CFA62BB62B96AFA6AEB
:1032100041E800237B627B6A002BE5D17B681B6B56
:10322000012B19D17B681B680C33FB60FB6853E8EA
:10323000003FBB60BB6823F010037B647B681B68A6
:103240000C337A6CBA617B617969BA6941E8002311
:103250003B613B69002BE5D17B68202283F842204B
:103260007B6800221A6300BF5437BD4680BC70479C
:1032700080B584B000AF78607B685B6AFB60FB68F8
:103280000022DA85FB680022DA84F868FFF7D3FEB3
:1032900000BF1037BD4680BD80B485B000AF7860F8
:1032A0007B6893F84130DBB2212B3ED17B689B6871
:1032B000B3F5805F14D17B681B69002B10D17B684C
:1032C0001B6AFB60FB681B881A467B681B68C2F39D
:1032D00008025A607B681B6A9A1C7B681A6208E0C5
:1032E0007B681B6A591C7A6811621A787B681B68B4
:1032F0005A607B68DB8C9BB2013B9BB27A681946B3
:10330000D184002B0FD17B681B68DA687B681B684F
:1033100022F08002DA607B681B68DA687B681B68D1
:1033200042F04002DA60002300E00223184614371E
:10333000BD4680BC704780B582B000AF78607B68C6
:103340001B68DA687B681B6822F04002DA607B68E1
:10335000202283F841207868FFF764FE0023184696
:103360000837BD4680BD80B58CB000AF78607B6803
:1033700093F84230DBB2222B40F0AE807B689B6832
:10338000B3F5805F17D17B681B69002B13D1002335
:10339000FB627B689B6ABB627B681B685B689BB255
:1033A000C3F308039AB2BB6A1A807B689B6A9A1CB3
:1033B0007B689A6226E07B689B6AFB620023BB62A3
:1033C0007B689B68B3F5805F07D07B689B68002BA8
:1033D0000AD17B681B69002B06D17B681B685B6880
:1033E000DAB2FB6A1A7008E07B681B685B68DBB2C4
:1033F00003F07F03DAB2FB6A1A707B689B6A5A1C7F
:103400007B689A627B68DB8D9BB2013B9BB27A68DA
:103410001946D185002B5DD17B681B68DA687B6813
:103420001B6822F02002DA607B681B68DA687B6820
:103430001B6822F48072DA607B681B685A697B68BB
:103440001B6822F001025A617B68202283F8422027
:103450007B6800225A637B681B6B012B35D17B682C
:1034600000221A637B681B680C337B617B6953E81D
:10347000003F3B613B6923F010037B627B681B6864
:103480000C337A6A3A62FB61F9693A6A41E80023CF
:10349000BB61BB69002BE5D17B681B681B6803F02F
:1034A0001003102B0AD10023FB607B681B681B688C
:1034B000FB607B681B685B68FB60FB687B689B8DBF
:1034C00019467868FFF7C0FD02E0786801F038FE21
:1034D000002302E0002300E0022318463037BD46F7
:1034E00080BD000080B584B000AF78607B681B6849
:1034F0001B6923F440517B68DA687B681B680A43C8
:103500001A617B689A687B681B691A437B685B69F0
:103510001343BB607B681B68DB6823F4B05323F064
:103520000C037A681268B9680B43D3607B681B6828
:103530005B6923F440717B689A697B681B680A4366
:103540005A617B681B682C4A934203D1FEF734FF13
:10355000F86002E0FEF71CFFF860FA6813469B0073
:1035600013449A001A447B685B689B00B2FBF3F338
:10357000224AA2FB03235B091901FA6813469B0048
:1035800013449A001A447B685B689B00B2FBF3F219
:103590001A4BA3FB02035B09642000FB03F3D31A5D
:1035A0001B013233154AA2FB03235B0903F0F0032E
:1035B0001944FA6813469B0013449A001A447B6826
:1035C0005B689B00B2FBF3F20C4BA3FB02035B09AD
:1035D000642000FB03F3D31A1B013233074AA2FB1A
:1035E00003235B0903F00F027B681B680A449A609F
:1035F00000BF1037BD4680BD003801401F85EB512C
:1036000080B584B000AF0346FB71FB79FB730022E9
:1036100020211648FEF7D9FA0023BB731EE097F964
:103620000F30002B05DA012210211048FEF7CDFAE9
:1036300004E0002210210D48FEF7C7FA01222021E4
:103640000A48FEF7C2FA002220210848FEF7BDFA18
:10365000FB7B5B00FB73BB7B0133BB73BB7B072B2B
:10366000DDD900BF00BF1037BD4680BD0008014056
:1036700080B500AF02210548FEF790FA0346002B03
:1036800000D0F7E700BF00BF80BD00BF000C0140C5
:1036900080B582B000AF0346FB71012240210D4886
:1036A000FEF793FA002240210A48FEF78EFA002224
:1036B00080210848FEF789FAFB791846FFF7A0FF3A
:1036C000012240210348FEF780FA00BF0837BD46BB
:1036D00080BD00BF0008014080B582B000AF034646
:1036E000FB71012240210D48FEF76FFA00224021B4
:1036F0000A48FEF76AFA012280210848FEF765FAB7
:10370000FB791846FFF77CFF012240210348FEF7B2
:103710005CFA00BF0837BD4680BD00BF000801400D
:1037200080B586B000AF00237B610F233B61272368
:10373000FB600123BB6000237B6000233B6000F043
:103740006DF8FFF795FF1220FFF7A2FFFFF790FF3C
:103750000120FFF79DFF2720FFF7BEFF0120FFF7A5
:10376000BBFF0020FFF7B8FF1120FFF791FF0120FA
:10377000FFF7B2FF3C20FFF78BFF0120FFF7ACFF04
:103780002120FFF785FF0020FFF7A6FF8020FFF72D
:10379000A3FF1820FFF77CFF8020FFF79DFF442048
:1037A000FFF776FF7B69DBB21846FFF795FF3B69B1
:1037B000DBB21846FFF790FF4520FFF769FFFB6873
:1037C000DBB21846FFF788FFBB68DBB21846FFF78D
:1037D00083FF7B68DBB21846FFF77EFF3B68DBB2F6
:1037E0001846FFF779FF4E20FFF752FF7B69DBB2E7
:1037F0001846FFF771FF4F20FFF74AFFFB68DBB267
:103800001846FFF769FFBB68DBB21846FFF764FF95
:10381000FFF72EFF00BF1837BD4680BD80B500AF53
:10382000002201210748FEF7D0F91420FDF77CFEA5
:10383000012201210348FEF7C8F91420FDF774FEA8
:1038400000BF80BD000C014080B500AF2220FFF713
:103850001FFFF720FFF740FF2020FFF719FFFFF7BA
:1038600007FF1020FFF714FF0120FFF735FF14209A
:10387000FDF75AFE00BF80BD80B500AF2220FFF7E4
:1038800007FFFF20FFF728FF2020FFF701FFFFF7CA
:10389000EFFE1020FFF7FCFE0120FFF71DFF1420B4
:1038A000FDF742FE00BF80BD80B58CB000AFF86070
:1038B000B9607A603B60BB68002B00DA0733DB102D
:1038C000BB60BB6B002B00DA0733DB101A46BB680A
:1038D0001344013BBB62FB68C3F593730133FB6088
:1038E000FB68002B00DAFF331B127B62FB685A4235
:1038F000DBB2D2B258BF53423B62FA683B68D31A7C
:103900000133FB61FB69002B00DAFF331B12BB6143
:10391000FB695A42DBB2D2B258BF53427B614420AA
:10392000FFF7B6FEBB68DBB21846FFF7D5FEBB6AF1
:10393000DBB21846FFF7D0FE4520FFF7A9FE3B6A31
:10394000DBB21846FFF7C8FE7B6ADBB21846FFF70A
:10395000C3FE7B69DBB21846FFF7BEFEBB69DBB274
:103960001846FFF7B9FE4E20FFF792FEBB68DBB2A8
:103970001846FFF7B1FE4F20FFF78AFE3B6ADBB225
:103980001846FFF7A9FE7B6ADBB21846FFF7A4FED4
:10399000FFF76EFE2420FFF77BFE0023FB6223E08F
:1039A00097F83C30012B07D17B681B781846FFF74E
:1039B00093FE7B6801337B6097F83C30022B09D182
:1039C0007B681B78DB43DBB21846FFF785FE7B681C
:1039D00001337B6097F83C30032B02D1FF20FFF7C7
:1039E0007BFEFB6A0133FB623B68BA6B02FB03F3AD
:1039F000002B00DA0733DB101A46FB6A9342CFDB59
:103A000000BF00BF3037BD4680BD80B582B000AF7B
:103A10002420FFF73DFE00237B6005E0FF20FFF739
:103A20005BFE7B6801337B607B68B3F5945FF5D305
:103A30002620FFF72DFE00237B6005E0FF20FFF727
:103A40004BFE7B6801337B607B68B3F5945FF5D3F5
:103A5000FFF7FAFE00BF0837BD4680BD80B5A6B0AF
:103A600002AFF860B9603B601346FB71FB79202B15
:103A700003D897F90730002B2EDB3B68102B03D0BF
:103A80003B68202B14D028E0FA7907F110011023AD
:103A9000134800F07DF807F1100297F89830019371
:103AA000102300931023B968F868FFF7FDFE14E0B7
:103AB000FA7907F1100120230A4800F069F807F1AC
:103AC000100297F898300193202300932023B968BF
:103AD000F868FFF7E9FE00E000BF9037BD4680BD03
:103AE0004CDE0008DCE5000880B588B002AFF86065
:103AF000B9607A603B6005233B6100237B611DE078
:103B00003B68002B00DA0F331B111A463B6902FB9E
:103B100003F33A68D31A7A6903FB02F2FB68D01800
:103B20007B697A6813441A7897F8203000933B68D1
:103B3000B968FFF793FF7B6901337B617B697A6822
:103B400013441B78002BDBD100BF00BF1837BD46E4
:103B500080BD000080B586B002AFF860B9607A60C1
:103B60007B68C3F10403B12202FB03F31A46074B3F
:103B70001A4402230193182300933B23B968F86881
:103B8000FFF792FE00BF1037BD4680BD30FF000832
:103B900080B48DB000AFF860B9603B601346FB7134
:103BA0003B6803FB03F3002B00DA0733DB10FB61F8
:103BB000FB79A3F12102FB6902FB03F3BB61002344
:103BC000FB620023BB6200237B6219E07B6A5A1C04
:103BD0007A621A46FB6813441B783B753B7D002BC9
:103BE0000BD17B6A5A1C7A621A46FB6813441B7815
:103BF0001A46FB6A1344FB6202E0FB6A0133FB6274
:103C0000FA6ABB699A42E1DB33E07B6A5A1C7A624A
:103C10001A46FB6813441B78FB75FB7D002B20D1F3
:103C20007B6A5A1C7A621A46FB6813441B78BB7580
:103C300000237B7500233B620AE0BB6A5A1CBA6210
:103C40001A46BB6813447A7D1A703B6A01333B62A3
:103C5000BB7D3A6A9A420CDABA6AFB699A42ECDB9B
:103C600007E0BB6A5A1CBA621A46BB681344FA7D65
:103C70001A70BA6AFB699A42C7DB00BF00BF3437CB
:103C8000BD4680BC7047000080B586B000AF07F12C
:103C9000080300221A605A609A60DA600F4B9B6931
:103CA0000E4A43F0080393610C4B9B6903F0080331
:103CB0007B607B684FF40073BB600123FB600023D3
:103CC0003B6101237B6107F1080319460448FDF7B6
:103CD000E1FD00BF1837BD4680BD00BF00100240A7
:103CE000000C014080B586B000AF07F10803002248
:103CF0001A605A609A60DA600E4B9B690D4A43F075
:103D0000080393610B4B9B6903F008037B607B689E
:103D10004FF40073BB600023FB6000233B6107F19D
:103D2000080319460448FDF7B5FD00BF1837BD4626
:103D300080BD00BF00100240000C014080B584B07F
:103D400000AF0346FB71FFF79FFF0023FB730022C8
:103D50004FF480711848FDF738FF0023FB7323E010
:103D600000224FF480711448FDF72FFFFB7903F018
:103D70000103002B06D001224FF400710E48FDF71D
:103D800024FF05E000224FF400710B48FDF71DFFF2
:103D900001224FF480710848FDF717FFFB795B089B
:103DA000FB71FB7B0133FB73FB7B072BD8D900BF77
:103DB00000BF1037BD4680BD000C014080B584B007
:103DC00000AF03460A46FB711346BB71FB79FB73D8
:103DD000BB79BB7300224FF400511848FDF7F5FE84
:103DE00000224FF480711648FDF7EFFE0120FDF729
:103DF0009BFB01224FF400511048FDF7E6FE022024
:103E0000FDF792FBFB7B1846FFF798FFBB7B18463C
:103E1000FFF794FF00224FF400510848FDF7D5FE4C
:103E200000224FF480710648FDF7CFFE0220FDF717
:103E30007BFB00BF1037BD4680BD00BF00100140B6
:103E4000000C014080B584B000AF0346FB71FB79E4
:103E50007B730023FB730023BB7300224FF40051DC
:103E60002F48FDF7B2FE00224FF480712D48FDF778
:103E7000ACFE0320FDF758FB01224FF40051284807
:103E8000FDF7A3FE0320FDF74FFB7B7B1846FFF7F2
:103E900055FFFFF727FF0220FDF746FB0023FB73CA
:103EA00026E00220FDF740FBBB7B5B08BB730122D1
:103EB0004FF480711B48FDF788FE0420FDF734FBAA
:103EC00000224FF480711748FDF77FFE0520FDF7B3
:103ED0002BFB4FF400711348FDF760FE0346002BE7
:103EE00003D0BB7B63F07F03BB73FB7B0133FB73AE
:103EF000FB7B072BD5D90220FDF716FB00224FF4E0
:103F000000510748FDF761FE00224FF4007105489B
:103F1000FDF75BFEBB7B18461037BD4680BD00BF7A
:103F200000100140000C014080B582B000AF3B465C
:103F300083E8030000218E20FFF740FFBB7918467D
:103F400000F004F9034619468020FFF737FF7B791C
:103F5000184600F0FBF8034619468220FFF72EFFB3
:103F60003B79184600F0F2F8034619468420FFF723
:103F700025FFFB78184600F0E9F80346194686202D
:103F8000FFF71CFFBB78184600F0E0F8034619461F
:103F90008820FFF713FF07218A20FFF70FFF3B88D8
:103FA0000D4AA2FB03125209642101FB02F29B1A83
:103FB0009BB2184600F0CAF8034619468C20FFF75A
:103FC000FDFE80218E20FFF7F9FE0A20FDF7ACFAF6
:103FD00000BF0837BD4680BD1F85EB5180B500AFDF
:103FE0008120FFF72FFF03461A46174B1A708320D4
:103FF000FFF728FF03461A46134B5A708520FFF738
:1040000021FF03461A46104B9A708720FFF71AFFCC
:1040100003461A460C4BDA708920FFF713FF03465C
:104020001A46094B1A718B20FFF70CFF03461A46FC
:10403000054B5A718D20FFF705FF03461A46024BC8
:104040009A7100BF80BD00BF4803002080B500AF5B
:10405000FFF7C4FF3B4B1B781B09DBB21A469200EB
:1040600013445B00DAB2374B1B7803F00F03DBB26B
:104070001344DAB2344B9A71324B5B781B09DBB2D2
:1040800003F00703DBB21A46920013445B00DAB276
:104090002C4B5B7803F00F03DBB21344DAB22A4BEC
:1040A0005A71284B9B781B09DBB21A4692001344C5
:1040B0005B00DAB2234B9B7803F00F03DBB21344AF
:1040C000DAB2214B1A711F4BDB781B09DBB21A469F
:1040D000920013445B00DAB21A4BDB7803F00F0353
:1040E000DBB21344DAB2184BDA70164B1B791B099A
:1040F000DBB21A46920013445B00DAB2114B1B7913
:1041000003F00F03DBB21344DAB20F4B9A700D4B7E
:104110005A790D4BDA710B4B9B791B09DBB21A46AE
:10412000920013445B009AB2064B9B7903F00F0395
:104130009BB213449BB203F5FA639AB2024B1A8006
:1041400000BF80BD480300204003002080B485B03C
:1041500000AF78607B68114A82FB03129210DB1774
:10416000D31AFB737A680D4B83FB02139910D31794
:10417000C91A0B469B000B445B00D11A0B46BB735C
:10418000FB7B1B015AB297F90E3013435BB27B7372
:104190007B7B18461437BD4680BC704767666666F1
:1041A00080B500AF012209490948FEF784FC00F000
:1041B00089FC00F011FD074806F08AF8064B1B68E1
:1041C000184601F0E5F800BF80BD00BF5003002095
:1041D000F402002084DC0008FC010020B0B586B0A9
:1041E00004AF334B1B684FF0FF31184601F086FBDC
:1041F00000233B602F4B1B78002B18D02D4B1B78D6
:1042000019462D4805F0FCFF2A4B1B781A462B4B0C
:104210001A6000237B6007E0264A7B681344002273
:104220001A707B6801337B607B68002BF4DD244BC4
:10423000186800230022012101F04EFA386021485D
:1042400006F046F83B6803F00103002B27D03B68DB
:10425000002B24DD1C4B1B889BB218461A4B9B7805
:10426000DBB21C46184BDB78DBB21D46164B1B79C4
:10427000DBB21A46144B5B79DBB21946124B9B79C1
:10428000DBB20293019100922B46224601460F4871
:1042900005F0B6FF0C4B93E80300FFF745FEFFF770
:1042A000D5FE0A2001F0A8F800BF0837BD46B0BD12
:1042B000140200205003002094DC0008700300204A
:1042C00018020020A4DC000868030020B0DC00080D
:1042D00080B500AF00F0C0F9074B1B68184601F02D
:1042E00073FB064B1B68184601F06EFB0A2001F0B9
:1042F00083F800BF80BD00BF140200201002002020
:1043000080B483B000AF0346FB80FB8803F0030357
:104310009BB2002B0BD1FB880F4AA2FB0312520960
:10432000642101FB02F29B1A9BB2002B0CD1FB888B
:10433000094AA2FB0312D2094FF4C87101FB02F231
:104340009B1A9BB2002B01D1012300E000231846E9
:104350000C37BD4680BC70471F85EB5180B582B0DD
:1043600000AF03460A46FB801346BB80BB880C2B7C
:104370008CBF01220022D2B2002A2ED1012202FAE1
:1043800003F341F2AA521A40002A14BF012200226C
:10439000D2B2002A12D103F42562002A14BF0122EE
:1043A0000022D2B2002A0BD103F00403002B14BF69
:1043B00001230023DBB2002B04D10EE01F230DE00C
:1043C0001E230BE0FB881846FFF79AFF0346002BDD
:1043D00001D01D2302E01C2300E00023184608370B
:1043E000BD4680BD80B584B000AF0346FB800B4660
:1043F000BB8013467B800023FB814FF4FA63BB81B3
:1044000012E0BB891846FFF77BFF0346002B02D062
:104410004FF4B77301E040F26D139AB2FB89134475
:10442000FB81BB890133BB81BA89FB889A42E8D3FF
:1044300001237B810DE07A89FB8811461846FFF73E
:104440008DFF03461A46FB891344FB817B890133A8
:104450007B817A89BB889A42EDD3FA897B881344A1
:10446000FB81FB8918461037BD4680BD90B589B0E9
:1044700000AF07F1080484E80300394681E80C0026
:104480003B89002B1FD03B88002B1CD03B89BA7A7C
:104490001146FA7A1846FFF7A5FF0346FB613B88F1
:1044A000BA781146FA781846FFF79CFF0346BB61BD
:1044B000BA69FB69D31A7B617B69002B01DD7B69DB
:1044C00002E0002300E0002318462437BD4690BDDB
:1044D00080B400AF5B4B1B889BB25B4AA2FB03120C
:1044E0005209642101FB02F29B1A9BB2574AA2FBBC
:1044F0000323DB089BB2DBB23033DAB2544B1A70C1
:10450000504B1B889BB2504AA2FB031252096421F4
:1045100001FB02F29B1A9AB24C4BA3FB0213D9087F
:104520000B469B000B445B00D31A9BB2DBB23033CB
:10453000DAB2474B5A70464B2D229A70414B9B780A
:10454000DBB2424AA2FB0323DB08DBB23033DAB230
:104550003F4BDA703B4B9B78DAB23C4BA3FB021328
:10456000D9080B469B000B445B00D31ADBB23033F7
:10457000DAB2374B1A71364B2D225A71314BDB7838
:10458000DBB2324AA2FB0323DB08DBB23033DAB200
:104590002F4B9A712B4BDB78DAB22C4BA3FB021317
:1045A000D9080B469B000B445B00D31ADBB23033B7
:1045B000DAB2274BDA71264B00221A72214B1B7993
:1045C000DBB2224AA2FB0323DB08DBB23033DAB2D0
:1045D000204B1A701B4B1B79DAB21C4BA3FB021346
:1045E000D9080B469B000B445B00D31ADBB2303377
:1045F000DAB2184B5A70174B3A229A70114B5B790A
:10460000DBB2124AA2FB0323DB08DBB23033DAB29F
:10461000104BDA700B4B5B79DAB20C4BA3FB021335
:10462000D9080B469B000B445B00D31ADBB2303336
:10463000DAB2084B1A71074B00225A7100BFBD460F
:1046400080BC7047400300201F85EB51CDCCCCCC03
:104650005403002060030020B0B586B004AFFFF71C
:1046600037FF00237B609C4B1B68013B112B00F242
:10467000958101A252F823F09D490008C146000827
:10468000D9460008F34600080D47000827470008F0
:104690009D4900083F47000881470008DB470008A4
:1046A0000B4800084148000871480008A748000866
:1046B000F94800082F4900085F490008954900089B
:1046C000864B874A1068516803C3864B1B680121DB
:1046D000184600F0ABFF62E1804B814A0833106856
:1046E000516803C37F4B1B680121184600F09EFFF1
:1046F00055E17A4B7A4A18331068516803C3794BF5
:104700001B680121184600F091FF48E1734B744A81
:1047100010331068516803C3724B1B68012118469F
:1047200000F084FF3BE1704B6D4A1068516803C391
:104730006C4B1B680121184600F078FF2FE16B4B92
:104740001B886A4B1B889BB2694AA2FB0312520961
:10475000642101FB02F29B1A9BB2622B0CD8634BC3
:104760001B889BB201339AB2604B1A80614B1B6865
:104770000121184600F05AFF574B00221A600EE143
:104780005A4B1B889BB25A4AA2FB0312520964215E
:1047900001FB02F29B1A9BB2002B1AD0534B1B88D1
:1047A0009BB2534AA2FB03125209642101FB02F29D
:1047B0009B1A9BB2632B0CD84C4B1B889BB2013BC2
:1047C0009AB24A4B1A804B4B1B680121184600F0E5
:1047D0002DFF414B00221A60E1E0444B9B78434B94
:1047E0009B78DBB20B2B0CD8404B9B78DBB20133B0
:1047F000DAB23E4B9A703F4B1B680121184600F01D
:1048000015FF354B00221A60C9E0384B9B78DBB2AC
:10481000002B11D0354B9B78DBB20C2B0CD8334BD3
:104820009B78DBB2013BDAB2304B9A70314B1B689C
:104830000121184600F0FAFE274B00221A60AEE074
:104840002A4BDB78294BDB78DBB21E2B0CD8274BAD
:10485000DB78DBB20133DAB2244BDA70254B1B680C
:104860000121184600F0E2FE1B4B00221A6096E080
:104870001E4BDB78DBB2002B11D01C4BDB78DBB29C
:104880001F2B0CD8194BDB78DBB2013BDAB2174B8C
:10489000DA70184B1B680121184600F0C7FE0E4B5A
:1048A00000221A607BE0114B1B79104B1B79DBB2A5
:1048B000172B0CD80D4B1B79DBB20133DAB20B4B43
:1048C0001A710C4B1B680121184600F0AFFE024B19
:1048D00000221A6063E000BF700300207C03002008
:1048E000400300203C0200207403002068030020E5
:1048F0001F85EB5118020020664B1B79DBB2002BA1
:1049000011D0644B1B79DBB2182B0CD8614B1B798F
:10491000DBB2013BDAB25F4B1A715F4B1B680121BE
:10492000184600F083FE5D4B00221A6037E0594BB9
:104930005B79584B5B79DBB23A2B0CD8554B5B79E2
:10494000DBB20133DAB2534B5A71534B1B6801216E
:10495000184600F06BFE514B00221A601FE04D4BD1
:104960005B79DBB2002B11D04A4B5B79DBB23B2B7E
:104970000CD8484B5B79DBB2013BDAB2454B5A713C
:10498000454B1B680121184600F050FE434B0022A6
:104990001A6004E0414B00221A6000E000BF404B67
:1049A0001B889AB23F4B1B889A421BD13C4B9B7889
:1049B000DAB23D4B1B789A4214D1394BDB78DAB22C
:1049C0003A4B1B789A420DD1354B1B79DAB2384BF2
:1049D0001B789A4206D1324B5B79DAB2354B1B78A1
:1049E0009A4221D02E4B1B889AB22E4B1A802C4B08
:1049F0009B78DAB22C4B1A70294BDB78DAB22B4B4E
:104A00001A70274B1B79DAB2294B1A70244B5B7949
:104A1000DAB2284B1A70284B1B680121184600F0A7
:104A200005FE264805F054FC234B1868002300229D
:104A3000012100F051FE78607B6803F00103002B38
:104A400024D07B68002B21DD154B1B889BB21846B8
:104A5000134B9B78DBB21C46114BDB78DBB21D4657
:104A60000F4B1B79DBB21A460D4B5B79DBB2194653
:104A70000B4B9B79DBB20293019100922B462246AD
:104A800001460F4805F0BCFB00F002FA00BF0837F2
:104A9000BD46B0BD6803002018020020700300204E
:104AA00040030020A2030020A4030020A50300204F
:104AB000A6030020A70300203C020020D0DC000851
:104AC000DCDC000880B582B000AF01E0FFF7BEFA81
:104AD000144B1B889BB2002BF8D0FFF7F9FC124B4C
:104AE000104A1168526819605A60104B0D4A1068DC
:104AF000516803C300237B600BE00D4A7B680949C2
:104B0000DB0013440A461068516803C37B68013315
:104B10007B607B68032BF0DD00BF00BF0837BD461C
:104B200080BD00BF40030020680300207403002004
:104B30007C030020B0B584B004AF214B1B684FF05C
:104B4000FF31184600F0DAFE1E4B1B889BB2184658
:104B50001C4B9B78DBB21C461A4BDB78DBB21D4644
:104B6000184B1B79DBB21A46164B5B79DBB2194640
:104B7000144B9B79DBB20293019100922B462246A3
:104B80000146114805F03CFB02211048FDF706F8EC
:104B90000346002B0CBF01230023DBB21A4602217F
:104BA0000A48FDF712F80A4B1B681946094805F038
:104BB00027FBC82000F020FC00BFBD46B0BD00BFF1
:104BC000100200204003002000DD00080008014022
:104BD000700300201CDD0008B0B582B002AFFEF704
:104BE0009FFDFEF712FFFEF719FE9B4A9B4B1168D3
:104BF0000D46526814461A6810465B6819462A46E4
:104C00002346FFF733FC0346042B11DC924A934BF7
:104C100011680D46526814461A6810465B681946BA
:104C20002A462346FFF722FC0346C3F1040300E0B3
:104C300000231A4600210020FEF78CFF864A874B8E
:104C400011680D46526814469A681046DB6819468A
:104C50002A462346FFF70AFC0346042B11DC7E4A52
:104C60007E4B11680D46526814469A681046DB6800
:104C700019462A462346FFF7F9FB0346C3F104030E
:104C800000E000231A4620210020FEF763FF724A4D
:104C9000724B11680D46526814461A6910465B69DA
:104CA00019462A462346FFF7E1FB0346042B11DC95
:104CB000694A6A4B11680D46526814461A691046D3
:104CC0005B6919462A462346FFF7D0FB0346C3F12A
:104CD000040300E000231A4640210020FEF73AFFBB
:104CE0005D4A5E4B11680D46526814469A6910463B
:104CF000DB6919462A462346FFF7B8FB0346042B17
:104D000011DC554A554B11680D46526814469A6994
:104D10001046DB6919462A462346FFF7A7FB0346E0
:104D2000C3F1040300E000231A4660210020FEF7CF
:104D300011FF02230193202300932023484A0021DE
:104D40003C20FEF7B1FD0123019320230093202393
:104D5000444A20213C20FEF7A7FD01230193202394
:104D600000932023404A40213C20FEF79DFD012373
:104D700001932023009320233C4A60213C20FEF72E
:104D800093FD022300932023394A0021AF20FEF730
:104D9000ABFE022300931023364A2021BE20FEF7EB
:104DA000A3FE01230193202300932023324A3021C4
:104DB000BE20FEF779FD284A304B11680D46526837
:104DC00014461A6810465B6819462A462346FFF7C0
:104DD0004DFB03460A222A49184604F09FFA024670
:104DE0000223009310233821DE20FEF77DFE0223EC
:104DF0000193202300932023224A5021BE20FEF756
:104E000053FD154A204B11680D46526814461A6826
:104E100010465B6819462A462346FFF727FB0346E0
:104E20000A221749184604F079FA02460223009331
:104E300010235821DE20FEF757FE01230193802323
:104E400000936423114A00215A20FEF72DFDFEF73E
:104E500013FD00BFBD46B0BD400300207C03002011
:104E600028040108A8030108A80201082803010872
:104E70006003002054030020B0FE00080C00002056
:104E80009C03002030FE000874030020A8040108E1
:104E9000B0B582B002AFFEF7C1FC9B4A9B4B1168D4
:104EA0000D46526814461A6810465B6819462A4631
:104EB0002346FFF7DBFA0346042B11DC924A934B9F
:104EC00011680D46526814461A6810465B68194608
:104ED0002A462346FFF7CAFA0346C3F1040300E05B
:104EE00000231A4600210020FEF734FE864A874B35
:104EF00011680D46526814469A681046DB681946D8
:104F00002A462346FFF7B2FA0346042B11DC7E4AF9
:104F10007E4B11680D46526814469A681046DB684D
:104F200019462A462346FFF7A1FA0346C3F10403B4
:104F300000E000231A4620210020FEF70BFE724AF3
:104F4000724B11680D46526814461A6910465B6927
:104F500019462A462346FFF789FA0346042B11DC3B
:104F6000694A6A4B11680D46526814461A69104620
:104F70005B6919462A462346FFF778FA0346C3F1D0
:104F8000040300E000231A4640210020FEF7E2FD62
:104F90005D4A5E4B11680D46526814469A69104688
:104FA000DB6919462A462346FFF760FA0346042BBD
:104FB00011DC554A554B11680D46526814469A69E2
:104FC0001046DB6919462A462346FFF74FFA034687
:104FD000C3F1040300E000231A4660210020FEF71D
:104FE000B9FD02230193202300932023484A002186
:104FF0003C20FEF759FC012301932023009320233A
:10500000444A20213C20FEF74FFC0123019320233A
:1050100000932023404A40213C20FEF745FC012319
:1050200001932023009320233C4A60213C20FEF77B
:105030003BFC022300932023394A0021AF20FEF7D6
:1050400053FD022300931023364A2021BE20FEF791
:105050004BFD01230193202300932023324A30216A
:10506000BE20FEF721FC284A304B11680D465268DD
:1050700014461A6810465B6819462A462346FFF70D
:10508000F5F903460A222A49184604F047F9024670
:105090000223009310233821DE20FEF725FD022392
:1050A0000193202300932023224A5021BE20FEF7A3
:1050B000FBFB154A204B11680D46526814461A68CE
:1050C00010465B6819462A462346FFF7CFF9034688
:1050D0000A221749184604F021F9024602230093D8
:1050E00010235821DE20FEF7FFFC012301938023CB
:1050F00000936423114A00215A20FEF7D5FBFEF7E6
:10510000BBFB00BFBD46B0BD400300207C030020B8
:1051100028040108A8030108A802010828030108BF
:105120006003002054030020B0FE00080C000020A3
:105130009C03002030FE000874030020A80401082E
:1051400080B582B000AF78607B681B68054A9342E7
:1051500004D1012204490548FDF7ADFC00BF083722
:10516000BD4680BD0044004050030020F4020020F2
:1051700080B485B000AFEFF30583BB60BB68002B44
:105180000FD1EFF310837B607B68002B09D1104BAC
:105190001B68022B09D1EFF311833B603B68002BA6
:1051A00003D06FF00503FB600CE0094B1B68002B7C
:1051B00005D1074B01221A600023FB6002E04FF08B
:1051C000FF33FB60FB6818461437BD4680BC704750
:1051D000A803002080B584B000AFEFF30583BB6067
:1051E000BB68002B0FD1EFF310837B607B68002B33
:1051F00009D1114B1B68022B09D1EFF311833B60DE
:105200003B68002B03D06FF00503FB600EE00A4BF8
:105210001B68012B07D1084B02221A6002F08CF99F
:105220000023FB6002E04FF0FF33FB60FB68184691
:105230001037BD4680BD00BFA803002080B592B0E6
:1052400004AFF860B9607A6000237B61EFF30583F7
:105250007B627B6A002B40F09480EFF310833B620B
:105260003B6A002B40F08D80484B1B68022B06D117
:10527000EFF31183FB61FB69002B40F08280FB6838
:10528000002B7ED080233B631823FB620023FB7638
:1052900007F11B037B634FF0FF33BB627B68002B7E
:1052A00045D07B681B68002B02D07B681B687B6342
:1052B0007B689B69002B02D07B689B69FB62FB6A61
:1052C000002B08D0FB6A382B05D87B685B6803F09D
:1052D0000103002B01D0002354E07B685B69002BA5
:1052E00003D07B685B699B083B637B689B68002BF2
:1052F0000ED07B68DB68A72B0AD97B681B69002B63
:1053000006D07B685B69002B02D00123BB6210E0F2
:105310007B689B68002B0CD17B68DB68002B08D175
:105320007B681B69002B04D10023BB6201E00023D2
:10533000BB62BB6A012B10D17B681B697A689268DB
:1053400002920193FB6A0093BB683A6B796BF86831
:1053500001F092FE03467B6113E0BB6A002B10D183
:105360003B6B9AB207F114030193FB6A0093BB688D
:10537000796BF86801F0DFFE0346012B01D00023B2
:105380007B617B6918463837BD4680BDA803002085
:1053900080B588B000AF78607B68BB61EFF30583B0
:1053A0007B617B69002B0FD1EFF310833B613B697D
:1053B000002B09D10F4B1B68022B09D1EFF311838E
:1053C000FB60FB68002B03D06FF00503FB610BE073
:1053D000BB69002B03D16FF00303FB6104E00023E2
:1053E000FB61B86902F032F8FB6918462037BD4608
:1053F00080BD00BFA803002080B586B000AF7860F4
:10540000EFF305833B613B69002B0FD1EFF3108372
:10541000FB60FB68002B09D10D4B1B68022B09D1E7
:10542000EFF31183BB60BB68002B03D06FF0050363
:105430007B6107E000237B617B68002B02D07868EA
:1054400001F0CEFF7B6918461837BD4680BD00BF0E
:10545000A803002080B584B000AF7860786803F0BE
:105460002FFBF860FB68002B05D0FB681B68FA680F
:1054700052681046984700BF1037BD4680BD0000F7
:1054800080B58EB002AFF8607A603B600B46FB726D
:105490000023BB62EFF30583BB61BB69002B6AD1BC
:1054A000EFF310837B617B69002B64D1344B1B6865
:1054B000022B05D1EFF311833B613B69002B5AD1DD
:1054C000FB68002B57D0082003F032FDF861FB6920
:1054D000002B50D0FB69FA681A60FB697A685A6041
:1054E000FB7A002B02D100237B6201E001237B6267
:1054F0004FF0FF333B620023FB623B68002B1CD064
:105500003B681B68002B02D03B681B68FB623B6852
:105510009B68002B06D03B68DB682F2B02D9012348
:105520003B620CE03B689B68002B08D13B68DB6862
:10553000002B04D100233B6201E000233B623B6A65
:10554000012B0CD13B689B6801930E4B0093FB69C8
:105550007A6A0121F86A02F06AFFB8620BE03B6ADE
:10556000002B08D1074B0093FB697A6A0121F86A86
:1055700002F03CFFB862BB6A18463037BD4680BDBA
:10558000A80300205554000880B588B000AF7860AB
:105590000023FB61EFF305837B617B69002B3DD129
:1055A000EFF310833B613B69002B37D11E4B1B6827
:1055B000022B05D1EFF31183FB60FB68002B2DD18B
:1055C0004FF0FF33BB617B68002B15D07B689B6875
:1055D000002B06D07B68DB681F2B02D90123BB613F
:1055E0000CE07B689B68002B08D17B68DB68002B94
:1055F00004D10023BB6101E00023BB61BB69012B27
:1056000006D17B689B68184600F068FAF86105E0EF
:10561000BB69002B02D100F09AFAF861FB691846C9
:105620002037BD4680BD00BFA803002080B588B0EC
:1056300000AF786039607B68BB61BB69002B03D029
:105640003B68B3F1807F03D36FF00303FB613AE063
:10565000EFF305837B617B69002B0FD1EFF31083A0
:105660003B613B69002B09D1194B1B68022B23D1ED
:10567000EFF31183FB60FB68002B1DD00023BB60A0
:1056800007F108031A463968B86900F007FC0346B9
:10569000002B03D06FF00203FB6113E03B68FB615A
:1056A000BB68002B0ED00B4B4FF080521A60BFF33B
:1056B0004F8FBFF36F8F05E03968B86900F034FB96
:1056C000F86100E000BFFB6918462037BD4680BD89
:1056D000A803002004ED00E080B58EB002AFF860B2
:1056E000B9607A603B60FB683B623B6A002B03D089
:1056F000BB68B3F1807F03D36FF003037B6259E093
:10570000EFF30583FB61FB69002B0FD1EFF31083EF
:10571000BB61BB69002B09D1294B1B68022B09D146
:10572000EFF311837B617B69002B03D06FF00503DE
:105730007B623FE07B6803F00103002B02D0012372
:10574000FB6201E00023FB627B6803F00203002B95
:1057500002D00023BB6201E00123BB623B680093DF
:10576000FB6ABA6AB968386A00F00CFA78627B683A
:1057700003F00103002B0ED0BA687B6A9A4219D05D
:105780003B68002B03D06FF001037B6212E06FF0E7
:1057900002037B620EE0BA687B6A1340002B09D1DA
:1057A0003B68002B03D06FF001037B6202E06FF0D7
:1057B00002037B627B6A18463037BD4680BD00BF5E
:1057C000A803002080B58CB002AFF860B9607A60A1
:1057D00000237B62EFF30583BB61BB69002B40F0C4
:1057E0008680EFF310837B617B69002B7FD1424B76
:1057F0001B68022B05D1EFF311833B613B69002B42
:1058000075D1FB68002B72D0BA68FB689A426ED8DB
:105810004FF0FF333B627B68002B15D07B689B68A1
:10582000002B06D07B68DB684F2B02D901233B623B
:105830000CE07B689B68002B08D17B68DB68002B41
:1058400004D100233B6201E000233B623B6AB3F1D9
:10585000FF3F4CD0FB68012B28D13B6A012B0AD1BA
:105860007B689B680322009200220021012000F047
:1058700043FC786205E003220021012000F0B8FC1F
:1058800078627B6A002B22D0BB68002B1FD00023DC
:1058900000220021786A00F07BFD0346012B16D020
:1058A000786A01F017FA00237B6210E03B6A012B53
:1058B00008D17B689B681A46B968F86800F0FAFC62
:1058C000786204E0B968F86800F02DFD78627B6AC0
:1058D000002B0CD07B68002B03D07B681B68FB611E
:1058E00001E00023FB61F969786A01F03FFB7B6A04
:1058F00018462837BD4680BDA803002080B588B073
:1059000000AF786039607B68BB610023FB61BB69D5
:10591000002B03D16FF00303FB614BE0EFF3058332
:105920007B617B69002B0FD1EFF310833B613B69F7
:10593000002B09D1224B1B68022B28D1EFF31183D6
:10594000FB60FB68002B22D03B68002B03D06FF07C
:105950000303FB612DE00023BB6007F108031A4637
:105960000021B86901F034F90346012B03D06FF030
:105970000203FB611DE0BB68002B1AD0114B4FF0F6
:1059800080521A60BFF34F8FBFF36F8F11E03968F9
:10599000B86901F00DF80346012B0BD03B68002BD2
:1059A00003D06FF00103FB6104E06FF00203FB61C1
:1059B00000E000BFFB6918462037BD4680BD00BF30
:1059C000A803002004ED00E080B588B000AF786047
:1059D0007B68BB610023FB61BB69002B03D16FF0C7
:1059E0000303FB613EE0EFF305837B617B69002BE2
:1059F0000FD1EFF310833B613B69002B09D11C4BA6
:105A00001B68022B20D1EFF31183FB60FB68002B96
:105A10001AD00023BB6007F108031946B86900F0EB
:105A200054FE0346012B03D06FF00203FB6118E024
:105A3000BB68002B15D00F4B4FF080521A60BFF39C
:105A40004F8FBFF36F8F0CE0002300220021B86955
:105A500000F09EFC0346012B04D06FF00203FB61B3
:105A600000E000BFFB6918462037BD4680BD00BF7F
:105A7000A803002004ED00E080B485B000AFF8601A
:105A8000B9607A60FB68064A1A60BB68054A1A600A
:105A90007B6880221A6000BF1437BD4680BC704707
:105AA000AC0300205404002080B485B000AFF8603F
:105AB000B9607A60FB68074A1A60BB68064A1A60D8
:105AC0007B684FF480721A6000BF1437BD4680BCFB
:105AD000704700BF54060020FC06002080B586B049
